{
	"contracts/RPS.sol": {
		"RPS": {
			"abi": [
				{
					"inputs": [],
					"stateMutability": "payable",
					"type": "constructor"
				},
				{
					"inputs": [
						{
							"internalType": "enum RPS.Hand",
							"name": "_hand",
							"type": "uint8"
						}
					],
					"name": "createRoom",
					"outputs": [
						{
							"internalType": "uint256",
							"name": "roomNum",
							"type": "uint256"
						}
					],
					"stateMutability": "payable",
					"type": "function"
				},
				{
					"inputs": [
						{
							"internalType": "uint256",
							"name": "_roomNum",
							"type": "uint256"
						},
						{
							"internalType": "enum RPS.Hand",
							"name": "_hand",
							"type": "uint8"
						}
					],
					"name": "joinRoom",
					"outputs": [],
					"stateMutability": "payable",
					"type": "function"
				},
				{
					"inputs": [
						{
							"internalType": "uint256",
							"name": "_roomNum",
							"type": "uint256"
						}
					],
					"name": "payout",
					"outputs": [],
					"stateMutability": "payable",
					"type": "function"
				}
			],
			"devdoc": {
				"kind": "dev",
				"methods": {},
				"version": 1
			},
			"evm": {
				"assembly": "    /* \"contracts/RPS.sol\":56:6636  contract RPS {... */\n  mstore(0x40, 0x80)\n    /* \"contracts/RPS.sol\":1518:1519  0 */\n  0x00\n    /* \"contracts/RPS.sol\":1500:1519  uint256 roomLen = 0 */\n  0x01\n  sstore\n    /* \"contracts/RPS.sol\":56:6636  contract RPS {... */\n  dataSize(sub_0)\n  dup1\n  dataOffset(sub_0)\n  0x00\n  codecopy\n  0x00\n  return\nstop\n\nsub_0: assembly {\n        /* \"contracts/RPS.sol\":56:6636  contract RPS {... */\n      mstore(0x40, 0x80)\n      jumpi(tag_1, lt(calldatasize, 0x04))\n      shr(0xe0, calldataload(0x00))\n      dup1\n      0x0f36f3b5\n      eq\n      tag_2\n      jumpi\n      dup1\n      0x79b15776\n      eq\n      tag_3\n      jumpi\n      dup1\n      0xe1152343\n      eq\n      tag_4\n      jumpi\n    tag_1:\n      0x00\n      dup1\n      revert\n        /* \"contracts/RPS.sol\":1590:2587  function createRoom(Hand _hand)... */\n    tag_2:\n      tag_5\n      0x04\n      dup1\n      calldatasize\n      sub\n      dup2\n      add\n      swap1\n      tag_6\n      swap2\n      swap1\n      tag_7\n      jump\t// in\n    tag_6:\n      tag_8\n      jump\t// in\n    tag_5:\n      mload(0x40)\n      tag_9\n      swap2\n      swap1\n      tag_10\n      jump\t// in\n    tag_9:\n      mload(0x40)\n      dup1\n      swap2\n      sub\n      swap1\n      return\n        /* \"contracts/RPS.sol\":2796:3314  function joinRoom(uint256 _roomNum, Hand _hand)... */\n    tag_3:\n      tag_11\n      0x04\n      dup1\n      calldatasize\n      sub\n      dup2\n      add\n      swap1\n      tag_12\n      swap2\n      swap1\n      tag_13\n      jump\t// in\n    tag_12:\n      tag_14\n      jump\t// in\n    tag_11:\n      stop\n        /* \"contracts/RPS.sol\":4582:6247  function payout(uint256 _roomNum)... */\n    tag_4:\n      tag_15\n      0x04\n      dup1\n      calldatasize\n      sub\n      dup2\n      add\n      swap1\n      tag_16\n      swap2\n      swap1\n      tag_17\n      jump\t// in\n    tag_16:\n      tag_18\n      jump\t// in\n    tag_15:\n      stop\n        /* \"contracts/RPS.sol\":1590:2587  function createRoom(Hand _hand)... */\n    tag_8:\n        /* \"contracts/RPS.sol\":1697:1712  uint256 roomNum */\n      0x00\n        /* \"contracts/RPS.sol\":1673:1678  _hand */\n      dup2\n        /* \"contracts/RPS.sol\":2667:2676  Hand.rock */\n      0x00\n        /* \"contracts/RPS.sol\":2658:2676  _hand == Hand.rock */\n      0x02\n      dup2\n      gt\n      iszero\n      tag_20\n      jumpi\n      tag_21\n      tag_22\n      jump\t// in\n    tag_21:\n    tag_20:\n        /* \"contracts/RPS.sol\":2658:2663  _hand */\n      dup2\n        /* \"contracts/RPS.sol\":2658:2676  _hand == Hand.rock */\n      0x02\n      dup2\n      gt\n      iszero\n      tag_23\n      jumpi\n      tag_24\n      tag_22\n      jump\t// in\n    tag_24:\n    tag_23:\n      eq\n        /* \"contracts/RPS.sol\":2657:2718  (_hand == Hand.rock) ||... */\n      dup1\n      tag_25\n      jumpi\n      pop\n        /* \"contracts/RPS.sol\":2707:2717  Hand.paper */\n      0x01\n        /* \"contracts/RPS.sol\":2698:2717  _hand == Hand.paper */\n      0x02\n      dup2\n      gt\n      iszero\n      tag_26\n      jumpi\n      tag_27\n      tag_22\n      jump\t// in\n    tag_27:\n    tag_26:\n        /* \"contracts/RPS.sol\":2698:2703  _hand */\n      dup2\n        /* \"contracts/RPS.sol\":2698:2717  _hand == Hand.paper */\n      0x02\n      dup2\n      gt\n      iszero\n      tag_28\n      jumpi\n      tag_29\n      tag_22\n      jump\t// in\n    tag_29:\n    tag_28:\n      eq\n        /* \"contracts/RPS.sol\":2657:2718  (_hand == Hand.rock) ||... */\n    tag_25:\n        /* \"contracts/RPS.sol\":2657:2762  (_hand == Hand.rock) ||... */\n      dup1\n      tag_30\n      jumpi\n      pop\n        /* \"contracts/RPS.sol\":2748:2761  Hand.scissors */\n      0x02\n        /* \"contracts/RPS.sol\":2739:2761  _hand == Hand.scissors */\n      dup1\n      dup2\n      gt\n      iszero\n      tag_31\n      jumpi\n      tag_32\n      tag_22\n      jump\t// in\n    tag_32:\n    tag_31:\n        /* \"contracts/RPS.sol\":2739:2744  _hand */\n      dup2\n        /* \"contracts/RPS.sol\":2739:2761  _hand == Hand.scissors */\n      0x02\n      dup2\n      gt\n      iszero\n      tag_33\n      jumpi\n      tag_34\n      tag_22\n      jump\t// in\n    tag_34:\n    tag_33:\n      eq\n        /* \"contracts/RPS.sol\":2657:2762  (_hand == Hand.rock) ||... */\n    tag_30:\n        /* \"contracts/RPS.sol\":2636:2772  require(... */\n      tag_35\n      jumpi\n      0x00\n      dup1\n      revert\n    tag_35:\n        /* \"contracts/RPS.sol\":1866:2404  Game({... */\n      mload(0x40)\n      dup1\n      0x80\n      add\n      0x40\n      mstore\n      dup1\n        /* \"contracts/RPS.sol\":1982:2179  Player({... */\n      mload(0x40)\n      dup1\n      0x80\n      add\n      0x40\n      mstore\n      dup1\n        /* \"contracts/RPS.sol\":2050:2060  msg.sender */\n      caller\n        /* \"contracts/RPS.sol\":1982:2179  Player({... */\n      0xffffffffffffffffffffffffffffffffffffffff\n      and\n      dup2\n      mstore\n      0x20\n      add\n        /* \"contracts/RPS.sol\":2155:2164  msg.value */\n      callvalue\n        /* \"contracts/RPS.sol\":1982:2179  Player({... */\n      dup2\n      mstore\n      0x20\n      add\n        /* \"contracts/RPS.sol\":2013:2018  _hand */\n      dup7\n        /* \"contracts/RPS.sol\":1982:2179  Player({... */\n      0x02\n      dup2\n      gt\n      iszero\n      tag_37\n      jumpi\n      tag_38\n      tag_22\n      jump\t// in\n    tag_38:\n    tag_37:\n      dup2\n      mstore\n      0x20\n      add\n        /* \"contracts/RPS.sol\":2093:2120  PlayerStatus.STATUS_PENDING */\n      0x03\n        /* \"contracts/RPS.sol\":1982:2179  Player({... */\n      dup1\n      dup2\n      gt\n      iszero\n      tag_39\n      jumpi\n      tag_40\n      tag_22\n      jump\t// in\n    tag_40:\n    tag_39:\n      dup2\n      mstore\n      pop\n        /* \"contracts/RPS.sol\":1866:2404  Game({... */\n      dup2\n      mstore\n      0x20\n      add\n        /* \"contracts/RPS.sol\":2200:2393  Player({... */\n      mload(0x40)\n      dup1\n      0x80\n      add\n      0x40\n      mstore\n      dup1\n        /* \"contracts/RPS.sol\":2272:2282  msg.sender */\n      caller\n        /* \"contracts/RPS.sol\":2200:2393  Player({... */\n      0xffffffffffffffffffffffffffffffffffffffff\n      and\n      dup2\n      mstore\n      0x20\n      add\n        /* \"contracts/RPS.sol\":2377:2378  0 */\n      0x00\n        /* \"contracts/RPS.sol\":2200:2393  Player({... */\n      dup2\n      mstore\n      0x20\n      add\n        /* \"contracts/RPS.sol\":2231:2240  Hand.rock */\n      0x00\n        /* \"contracts/RPS.sol\":2200:2393  Player({... */\n      0x02\n      dup2\n      gt\n      iszero\n      tag_41\n      jumpi\n      tag_42\n      tag_22\n      jump\t// in\n    tag_42:\n    tag_41:\n      dup2\n      mstore\n      0x20\n      add\n        /* \"contracts/RPS.sol\":2315:2342  PlayerStatus.STATUS_PENDING */\n      0x03\n        /* \"contracts/RPS.sol\":2200:2393  Player({... */\n      dup1\n      dup2\n      gt\n      iszero\n      tag_43\n      jumpi\n      tag_44\n      tag_22\n      jump\t// in\n    tag_44:\n    tag_43:\n      dup2\n      mstore\n      pop\n        /* \"contracts/RPS.sol\":1866:2404  Game({... */\n      dup2\n      mstore\n      0x20\n      add\n        /* \"contracts/RPS.sol\":1896:1905  msg.value */\n      callvalue\n        /* \"contracts/RPS.sol\":1866:2404  Game({... */\n      dup2\n      mstore\n      0x20\n      add\n        /* \"contracts/RPS.sol\":1931:1956  GameStatus.STATUS_STARTED */\n      0x01\n        /* \"contracts/RPS.sol\":1866:2404  Game({... */\n      0x03\n      dup2\n      gt\n      iszero\n      tag_45\n      jumpi\n      tag_46\n      tag_22\n      jump\t// in\n    tag_46:\n    tag_45:\n      dup2\n      mstore\n      pop\n        /* \"contracts/RPS.sol\":1849:1854  rooms */\n      0x00\n        /* \"contracts/RPS.sol\":1849:1863  rooms[roomLen] */\n      dup1\n        /* \"contracts/RPS.sol\":1855:1862  roomLen */\n      sload(0x01)\n        /* \"contracts/RPS.sol\":1849:1863  rooms[roomLen] */\n      dup2\n      mstore\n      0x20\n      add\n      swap1\n      dup2\n      mstore\n      0x20\n      add\n      0x00\n      keccak256\n        /* \"contracts/RPS.sol\":1849:2404  rooms[roomLen] = Game({... */\n      0x00\n      dup3\n      add\n      mload\n      dup2\n      0x00\n      add\n      0x00\n      dup3\n      add\n      mload\n      dup2\n      0x00\n      add\n      exp(0x0100, 0x00)\n      dup2\n      sload\n      dup2\n      0xffffffffffffffffffffffffffffffffffffffff\n      mul\n      not\n      and\n      swap1\n      dup4\n      0xffffffffffffffffffffffffffffffffffffffff\n      and\n      mul\n      or\n      swap1\n      sstore\n      pop\n      0x20\n      dup3\n      add\n      mload\n      dup2\n      0x01\n      add\n      sstore\n      0x40\n      dup3\n      add\n      mload\n      dup2\n      0x02\n      add\n      exp(0x0100, 0x00)\n      dup2\n      sload\n      dup2\n      0xff\n      mul\n      not\n      and\n      swap1\n      dup4\n      0x02\n      dup2\n      gt\n      iszero\n      tag_47\n      jumpi\n      tag_48\n      tag_22\n      jump\t// in\n    tag_48:\n    tag_47:\n      mul\n      or\n      swap1\n      sstore\n      pop\n      0x60\n      dup3\n      add\n      mload\n      dup2\n      0x02\n      add\n      exp(0x0100, 0x01)\n      dup2\n      sload\n      dup2\n      0xff\n      mul\n      not\n      and\n      swap1\n      dup4\n      0x03\n      dup2\n      gt\n      iszero\n      tag_49\n      jumpi\n      tag_50\n      tag_22\n      jump\t// in\n    tag_50:\n    tag_49:\n      mul\n      or\n      swap1\n      sstore\n      pop\n      pop\n      pop\n      0x20\n      dup3\n      add\n      mload\n      dup2\n      0x03\n      add\n      0x00\n      dup3\n      add\n      mload\n      dup2\n      0x00\n      add\n      exp(0x0100, 0x00)\n      dup2\n      sload\n      dup2\n      0xffffffffffffffffffffffffffffffffffffffff\n      mul\n      not\n      and\n      swap1\n      dup4\n      0xffffffffffffffffffffffffffffffffffffffff\n      and\n      mul\n      or\n      swap1\n      sstore\n      pop\n      0x20\n      dup3\n      add\n      mload\n      dup2\n      0x01\n      add\n      sstore\n      0x40\n      dup3\n      add\n      mload\n      dup2\n      0x02\n      add\n      exp(0x0100, 0x00)\n      dup2\n      sload\n      dup2\n      0xff\n      mul\n      not\n      and\n      swap1\n      dup4\n      0x02\n      dup2\n      gt\n      iszero\n      tag_51\n      jumpi\n      tag_52\n      tag_22\n      jump\t// in\n    tag_52:\n    tag_51:\n      mul\n      or\n      swap1\n      sstore\n      pop\n      0x60\n      dup3\n      add\n      mload\n      dup2\n      0x02\n      add\n      exp(0x0100, 0x01)\n      dup2\n      sload\n      dup2\n      0xff\n      mul\n      not\n      and\n      swap1\n      dup4\n      0x03\n      dup2\n      gt\n      iszero\n      tag_53\n      jumpi\n      tag_54\n      tag_22\n      jump\t// in\n    tag_54:\n    tag_53:\n      mul\n      or\n      swap1\n      sstore\n      pop\n      pop\n      pop\n      0x40\n      dup3\n      add\n      mload\n      dup2\n      0x06\n      add\n      sstore\n      0x60\n      dup3\n      add\n      mload\n      dup2\n      0x07\n      add\n      exp(0x0100, 0x00)\n      dup2\n      sload\n      dup2\n      0xff\n      mul\n      not\n      and\n      swap1\n      dup4\n      0x03\n      dup2\n      gt\n      iszero\n      tag_55\n      jumpi\n      tag_56\n      tag_22\n      jump\t// in\n    tag_56:\n    tag_55:\n      mul\n      or\n      swap1\n      sstore\n      pop\n      swap1\n      pop\n      pop\n        /* \"contracts/RPS.sol\":2424:2431  roomLen */\n      sload(0x01)\n        /* \"contracts/RPS.sol\":2414:2431  roomNum = roomLen */\n      swap2\n      pop\n        /* \"contracts/RPS.sol\":2492:2493  1 */\n      0x01\n        /* \"contracts/RPS.sol\":2482:2489  roomLen */\n      dup1\n      sload\n        /* \"contracts/RPS.sol\":2482:2493  roomLen + 1 */\n      tag_57\n      swap2\n      swap1\n      tag_58\n      jump\t// in\n    tag_57:\n        /* \"contracts/RPS.sol\":2472:2479  roomLen */\n      0x01\n        /* \"contracts/RPS.sol\":2472:2493  roomLen = roomLen + 1 */\n      dup2\n      swap1\n      sstore\n      pop\n        /* \"contracts/RPS.sol\":1590:2587  function createRoom(Hand _hand)... */\n      pop\n      swap2\n      swap1\n      pop\n      jump\t// out\n        /* \"contracts/RPS.sol\":2796:3314  function joinRoom(uint256 _roomNum, Hand _hand)... */\n    tag_14:\n        /* \"contracts/RPS.sol\":2895:2900  _hand */\n      dup1\n        /* \"contracts/RPS.sol\":2667:2676  Hand.rock */\n      0x00\n        /* \"contracts/RPS.sol\":2658:2676  _hand == Hand.rock */\n      0x02\n      dup2\n      gt\n      iszero\n      tag_60\n      jumpi\n      tag_61\n      tag_22\n      jump\t// in\n    tag_61:\n    tag_60:\n        /* \"contracts/RPS.sol\":2658:2663  _hand */\n      dup2\n        /* \"contracts/RPS.sol\":2658:2676  _hand == Hand.rock */\n      0x02\n      dup2\n      gt\n      iszero\n      tag_62\n      jumpi\n      tag_63\n      tag_22\n      jump\t// in\n    tag_63:\n    tag_62:\n      eq\n        /* \"contracts/RPS.sol\":2657:2718  (_hand == Hand.rock) ||... */\n      dup1\n      tag_64\n      jumpi\n      pop\n        /* \"contracts/RPS.sol\":2707:2717  Hand.paper */\n      0x01\n        /* \"contracts/RPS.sol\":2698:2717  _hand == Hand.paper */\n      0x02\n      dup2\n      gt\n      iszero\n      tag_65\n      jumpi\n      tag_66\n      tag_22\n      jump\t// in\n    tag_66:\n    tag_65:\n        /* \"contracts/RPS.sol\":2698:2703  _hand */\n      dup2\n        /* \"contracts/RPS.sol\":2698:2717  _hand == Hand.paper */\n      0x02\n      dup2\n      gt\n      iszero\n      tag_67\n      jumpi\n      tag_68\n      tag_22\n      jump\t// in\n    tag_68:\n    tag_67:\n      eq\n        /* \"contracts/RPS.sol\":2657:2718  (_hand == Hand.rock) ||... */\n    tag_64:\n        /* \"contracts/RPS.sol\":2657:2762  (_hand == Hand.rock) ||... */\n      dup1\n      tag_69\n      jumpi\n      pop\n        /* \"contracts/RPS.sol\":2748:2761  Hand.scissors */\n      0x02\n        /* \"contracts/RPS.sol\":2739:2761  _hand == Hand.scissors */\n      dup1\n      dup2\n      gt\n      iszero\n      tag_70\n      jumpi\n      tag_71\n      tag_22\n      jump\t// in\n    tag_71:\n    tag_70:\n        /* \"contracts/RPS.sol\":2739:2744  _hand */\n      dup2\n        /* \"contracts/RPS.sol\":2739:2761  _hand == Hand.scissors */\n      0x02\n      dup2\n      gt\n      iszero\n      tag_72\n      jumpi\n      tag_73\n      tag_22\n      jump\t// in\n    tag_73:\n    tag_72:\n      eq\n        /* \"contracts/RPS.sol\":2657:2762  (_hand == Hand.rock) ||... */\n    tag_69:\n        /* \"contracts/RPS.sol\":2636:2772  require(... */\n      tag_74\n      jumpi\n      0x00\n      dup1\n      revert\n    tag_74:\n        /* \"contracts/RPS.sol\":2985:3162  Player({... */\n      mload(0x40)\n      dup1\n      0x80\n      add\n      0x40\n      mstore\n      dup1\n        /* \"contracts/RPS.sol\":3045:3055  msg.sender */\n      caller\n        /* \"contracts/RPS.sol\":2985:3162  Player({... */\n      0xffffffffffffffffffffffffffffffffffffffff\n      and\n      dup2\n      mstore\n      0x20\n      add\n        /* \"contracts/RPS.sol\":3142:3151  msg.value */\n      callvalue\n        /* \"contracts/RPS.sol\":2985:3162  Player({... */\n      dup2\n      mstore\n      0x20\n      add\n        /* \"contracts/RPS.sol\":3012:3017  _hand */\n      dup4\n        /* \"contracts/RPS.sol\":2985:3162  Player({... */\n      0x02\n      dup2\n      gt\n      iszero\n      tag_76\n      jumpi\n      tag_77\n      tag_22\n      jump\t// in\n    tag_77:\n    tag_76:\n      dup2\n      mstore\n      0x20\n      add\n        /* \"contracts/RPS.sol\":3084:3111  PlayerStatus.STATUS_PENDING */\n      0x03\n        /* \"contracts/RPS.sol\":2985:3162  Player({... */\n      dup1\n      dup2\n      gt\n      iszero\n      tag_78\n      jumpi\n      tag_79\n      tag_22\n      jump\t// in\n    tag_79:\n    tag_78:\n      dup2\n      mstore\n      pop\n        /* \"contracts/RPS.sol\":2961:2966  rooms */\n      0x00\n        /* \"contracts/RPS.sol\":2961:2976  rooms[_roomNum] */\n      dup1\n        /* \"contracts/RPS.sol\":2967:2975  _roomNum */\n      dup6\n        /* \"contracts/RPS.sol\":2961:2976  rooms[_roomNum] */\n      dup2\n      mstore\n      0x20\n      add\n      swap1\n      dup2\n      mstore\n      0x20\n      add\n      0x00\n      keccak256\n        /* \"contracts/RPS.sol\":2961:2982  rooms[_roomNum].taker */\n      0x03\n      add\n        /* \"contracts/RPS.sol\":2961:3162  rooms[_roomNum].taker = Player({... */\n      0x00\n      dup3\n      add\n      mload\n      dup2\n      0x00\n      add\n      exp(0x0100, 0x00)\n      dup2\n      sload\n      dup2\n      0xffffffffffffffffffffffffffffffffffffffff\n      mul\n      not\n      and\n      swap1\n      dup4\n      0xffffffffffffffffffffffffffffffffffffffff\n      and\n      mul\n      or\n      swap1\n      sstore\n      pop\n      0x20\n      dup3\n      add\n      mload\n      dup2\n      0x01\n      add\n      sstore\n      0x40\n      dup3\n      add\n      mload\n      dup2\n      0x02\n      add\n      exp(0x0100, 0x00)\n      dup2\n      sload\n      dup2\n      0xff\n      mul\n      not\n      and\n      swap1\n      dup4\n      0x02\n      dup2\n      gt\n      iszero\n      tag_80\n      jumpi\n      tag_81\n      tag_22\n      jump\t// in\n    tag_81:\n    tag_80:\n      mul\n      or\n      swap1\n      sstore\n      pop\n      0x60\n      dup3\n      add\n      mload\n      dup2\n      0x02\n      add\n      exp(0x0100, 0x01)\n      dup2\n      sload\n      dup2\n      0xff\n      mul\n      not\n      and\n      swap1\n      dup4\n      0x03\n      dup2\n      gt\n      iszero\n      tag_82\n      jumpi\n      tag_83\n      tag_22\n      jump\t// in\n    tag_83:\n    tag_82:\n      mul\n      or\n      swap1\n      sstore\n      pop\n      swap1\n      pop\n      pop\n        /* \"contracts/RPS.sol\":3228:3237  msg.value */\n      callvalue\n        /* \"contracts/RPS.sol\":3200:3205  rooms */\n      0x00\n        /* \"contracts/RPS.sol\":3200:3215  rooms[_roomNum] */\n      dup1\n        /* \"contracts/RPS.sol\":3206:3214  _roomNum */\n      dup6\n        /* \"contracts/RPS.sol\":3200:3215  rooms[_roomNum] */\n      dup2\n      mstore\n      0x20\n      add\n      swap1\n      dup2\n      mstore\n      0x20\n      add\n      0x00\n      keccak256\n        /* \"contracts/RPS.sol\":3200:3225  rooms[_roomNum].betAmount */\n      0x06\n      add\n      sload\n        /* \"contracts/RPS.sol\":3200:3237  rooms[_roomNum].betAmount + msg.value */\n      tag_84\n      swap2\n      swap1\n      tag_58\n      jump\t// in\n    tag_84:\n        /* \"contracts/RPS.sol\":3172:3177  rooms */\n      0x00\n        /* \"contracts/RPS.sol\":3172:3187  rooms[_roomNum] */\n      dup1\n        /* \"contracts/RPS.sol\":3178:3186  _roomNum */\n      dup6\n        /* \"contracts/RPS.sol\":3172:3187  rooms[_roomNum] */\n      dup2\n      mstore\n      0x20\n      add\n      swap1\n      dup2\n      mstore\n      0x20\n      add\n      0x00\n      keccak256\n        /* \"contracts/RPS.sol\":3172:3197  rooms[_roomNum].betAmount */\n      0x06\n      add\n        /* \"contracts/RPS.sol\":3172:3237  rooms[_roomNum].betAmount = rooms[_roomNum].betAmount + msg.value */\n      dup2\n      swap1\n      sstore\n      pop\n        /* \"contracts/RPS.sol\":3247:3269  compareHands(_roomNum) */\n      tag_85\n        /* \"contracts/RPS.sol\":3260:3268  _roomNum */\n      dup4\n        /* \"contracts/RPS.sol\":3247:3259  compareHands */\n      tag_86\n        /* \"contracts/RPS.sol\":3247:3269  compareHands(_roomNum) */\n      jump\t// in\n    tag_85:\n        /* \"contracts/RPS.sol\":2796:3314  function joinRoom(uint256 _roomNum, Hand _hand)... */\n      pop\n      pop\n      pop\n      jump\t// out\n        /* \"contracts/RPS.sol\":4582:6247  function payout(uint256 _roomNum)... */\n    tag_18:\n        /* \"contracts/RPS.sol\":4664:4672  _roomNum */\n      dup1\n        /* \"contracts/RPS.sol\":4674:4684  msg.sender */\n      caller\n        /* \"contracts/RPS.sol\":6348:6353  rooms */\n      0x00\n        /* \"contracts/RPS.sol\":6348:6363  rooms[_roomNum] */\n      dup1\n        /* \"contracts/RPS.sol\":6354:6362  _roomNum */\n      dup4\n        /* \"contracts/RPS.sol\":6348:6363  rooms[_roomNum] */\n      dup2\n      mstore\n      0x20\n      add\n      swap1\n      dup2\n      mstore\n      0x20\n      add\n      0x00\n      keccak256\n        /* \"contracts/RPS.sol\":6348:6374  rooms[_roomNum].originator */\n      0x00\n      add\n        /* \"contracts/RPS.sol\":6348:6379  rooms[_roomNum].originator.addr */\n      0x00\n      add\n      0x00\n      swap1\n      sload\n      swap1\n      0x0100\n      exp\n      swap1\n      div\n      0xffffffffffffffffffffffffffffffffffffffff\n      and\n        /* \"contracts/RPS.sol\":6337:6379  _sender == rooms[_roomNum].originator.addr */\n      0xffffffffffffffffffffffffffffffffffffffff\n      and\n        /* \"contracts/RPS.sol\":6337:6344  _sender */\n      dup2\n        /* \"contracts/RPS.sol\":6337:6379  _sender == rooms[_roomNum].originator.addr */\n      0xffffffffffffffffffffffffffffffffffffffff\n      and\n      eq\n        /* \"contracts/RPS.sol\":6337:6436  _sender == rooms[_roomNum].originator.addr ||... */\n      dup1\n      tag_88\n      jumpi\n      pop\n        /* \"contracts/RPS.sol\":6410:6415  rooms */\n      0x00\n        /* \"contracts/RPS.sol\":6410:6425  rooms[_roomNum] */\n      dup1\n        /* \"contracts/RPS.sol\":6416:6424  _roomNum */\n      dup4\n        /* \"contracts/RPS.sol\":6410:6425  rooms[_roomNum] */\n      dup2\n      mstore\n      0x20\n      add\n      swap1\n      dup2\n      mstore\n      0x20\n      add\n      0x00\n      keccak256\n        /* \"contracts/RPS.sol\":6410:6431  rooms[_roomNum].taker */\n      0x03\n      add\n        /* \"contracts/RPS.sol\":6410:6436  rooms[_roomNum].taker.addr */\n      0x00\n      add\n      0x00\n      swap1\n      sload\n      swap1\n      0x0100\n      exp\n      swap1\n      div\n      0xffffffffffffffffffffffffffffffffffffffff\n      and\n        /* \"contracts/RPS.sol\":6399:6436  _sender == rooms[_roomNum].taker.addr */\n      0xffffffffffffffffffffffffffffffffffffffff\n      and\n        /* \"contracts/RPS.sol\":6399:6406  _sender */\n      dup2\n        /* \"contracts/RPS.sol\":6399:6436  _sender == rooms[_roomNum].taker.addr */\n      0xffffffffffffffffffffffffffffffffffffffff\n      and\n      eq\n        /* \"contracts/RPS.sol\":6337:6436  _sender == rooms[_roomNum].originator.addr ||... */\n    tag_88:\n        /* \"contracts/RPS.sol\":6316:6446  require(... */\n      tag_89\n      jumpi\n      0x00\n      dup1\n      revert\n    tag_89:\n        /* \"contracts/RPS.sol\":4801:4824  PlayerStatus.STATUS_TIE */\n      0x02\n        /* \"contracts/RPS.sol\":4746:4824  rooms[_roomNum].originator.playerStatus ==... */\n      0x03\n      dup2\n      gt\n      iszero\n      tag_91\n      jumpi\n      tag_92\n      tag_22\n      jump\t// in\n    tag_92:\n    tag_91:\n        /* \"contracts/RPS.sol\":4746:4751  rooms */\n      0x00\n        /* \"contracts/RPS.sol\":4746:4761  rooms[_roomNum] */\n      dup1\n        /* \"contracts/RPS.sol\":4752:4760  _roomNum */\n      dup6\n        /* \"contracts/RPS.sol\":4746:4761  rooms[_roomNum] */\n      dup2\n      mstore\n      0x20\n      add\n      swap1\n      dup2\n      mstore\n      0x20\n      add\n      0x00\n      keccak256\n        /* \"contracts/RPS.sol\":4746:4772  rooms[_roomNum].originator */\n      0x00\n      add\n        /* \"contracts/RPS.sol\":4746:4785  rooms[_roomNum].originator.playerStatus */\n      0x02\n      add\n      0x01\n      swap1\n      sload\n      swap1\n      0x0100\n      exp\n      swap1\n      div\n      0xff\n      and\n        /* \"contracts/RPS.sol\":4746:4824  rooms[_roomNum].originator.playerStatus ==... */\n      0x03\n      dup2\n      gt\n      iszero\n      tag_93\n      jumpi\n      tag_94\n      tag_22\n      jump\t// in\n    tag_94:\n    tag_93:\n      eq\n        /* \"contracts/RPS.sol\":4746:4901  rooms[_roomNum].originator.playerStatus ==... */\n      dup1\n      iszero\n      tag_95\n      jumpi\n      pop\n        /* \"contracts/RPS.sol\":4878:4901  PlayerStatus.STATUS_TIE */\n      0x02\n        /* \"contracts/RPS.sol\":4840:4901  rooms[_roomNum].taker.playerStatus == PlayerStatus.STATUS_TIE */\n      0x03\n      dup2\n      gt\n      iszero\n      tag_96\n      jumpi\n      tag_97\n      tag_22\n      jump\t// in\n    tag_97:\n    tag_96:\n        /* \"contracts/RPS.sol\":4840:4845  rooms */\n      0x00\n        /* \"contracts/RPS.sol\":4840:4855  rooms[_roomNum] */\n      dup1\n        /* \"contracts/RPS.sol\":4846:4854  _roomNum */\n      dup6\n        /* \"contracts/RPS.sol\":4840:4855  rooms[_roomNum] */\n      dup2\n      mstore\n      0x20\n      add\n      swap1\n      dup2\n      mstore\n      0x20\n      add\n      0x00\n      keccak256\n        /* \"contracts/RPS.sol\":4840:4861  rooms[_roomNum].taker */\n      0x03\n      add\n        /* \"contracts/RPS.sol\":4840:4874  rooms[_roomNum].taker.playerStatus */\n      0x02\n      add\n      0x01\n      swap1\n      sload\n      swap1\n      0x0100\n      exp\n      swap1\n      div\n      0xff\n      and\n        /* \"contracts/RPS.sol\":4840:4901  rooms[_roomNum].taker.playerStatus == PlayerStatus.STATUS_TIE */\n      0x03\n      dup2\n      gt\n      iszero\n      tag_98\n      jumpi\n      tag_99\n      tag_22\n      jump\t// in\n    tag_99:\n    tag_98:\n      eq\n        /* \"contracts/RPS.sol\":4746:4901  rooms[_roomNum].originator.playerStatus ==... */\n    tag_95:\n        /* \"contracts/RPS.sol\":4700:6241  if (... */\n      iszero\n      tag_100\n      jumpi\n        /* \"contracts/RPS.sol\":4926:4931  rooms */\n      0x00\n        /* \"contracts/RPS.sol\":4926:4941  rooms[_roomNum] */\n      dup1\n        /* \"contracts/RPS.sol\":4932:4940  _roomNum */\n      dup5\n        /* \"contracts/RPS.sol\":4926:4941  rooms[_roomNum] */\n      dup2\n      mstore\n      0x20\n      add\n      swap1\n      dup2\n      mstore\n      0x20\n      add\n      0x00\n      keccak256\n        /* \"contracts/RPS.sol\":4926:4952  rooms[_roomNum].originator */\n      0x00\n      add\n        /* \"contracts/RPS.sol\":4926:4957  rooms[_roomNum].originator.addr */\n      0x00\n      add\n      0x00\n      swap1\n      sload\n      swap1\n      0x0100\n      exp\n      swap1\n      div\n      0xffffffffffffffffffffffffffffffffffffffff\n      and\n        /* \"contracts/RPS.sol\":4926:4966  rooms[_roomNum].originator.addr.transfer */\n      0xffffffffffffffffffffffffffffffffffffffff\n      and\n        /* \"contracts/RPS.sol\":4926:5040  rooms[_roomNum].originator.addr.transfer(... */\n      0x08fc\n        /* \"contracts/RPS.sol\":4984:4989  rooms */\n      0x00\n        /* \"contracts/RPS.sol\":4984:4999  rooms[_roomNum] */\n      dup1\n        /* \"contracts/RPS.sol\":4990:4998  _roomNum */\n      dup7\n        /* \"contracts/RPS.sol\":4984:4999  rooms[_roomNum] */\n      dup2\n      mstore\n      0x20\n      add\n      swap1\n      dup2\n      mstore\n      0x20\n      add\n      0x00\n      keccak256\n        /* \"contracts/RPS.sol\":4984:5010  rooms[_roomNum].originator */\n      0x00\n      add\n        /* \"contracts/RPS.sol\":4984:5026  rooms[_roomNum].originator.playerBetAmount */\n      0x01\n      add\n      sload\n        /* \"contracts/RPS.sol\":4926:5040  rooms[_roomNum].originator.addr.transfer(... */\n      swap1\n      dup2\n      iszero\n      mul\n      swap1\n      mload(0x40)\n      0x00\n      mload(0x40)\n      dup1\n      dup4\n      sub\n      dup2\n      dup6\n      dup9\n      dup9\n      call\n      swap4\n      pop\n      pop\n      pop\n      pop\n      iszero\n      dup1\n      iszero\n      tag_102\n      jumpi\n      returndatasize\n      0x00\n      dup1\n      returndatacopy\n      revert(0x00, returndatasize)\n    tag_102:\n      pop\n        /* \"contracts/RPS.sol\":5054:5059  rooms */\n      0x00\n        /* \"contracts/RPS.sol\":5054:5069  rooms[_roomNum] */\n      dup1\n        /* \"contracts/RPS.sol\":5060:5068  _roomNum */\n      dup5\n        /* \"contracts/RPS.sol\":5054:5069  rooms[_roomNum] */\n      dup2\n      mstore\n      0x20\n      add\n      swap1\n      dup2\n      mstore\n      0x20\n      add\n      0x00\n      keccak256\n        /* \"contracts/RPS.sol\":5054:5075  rooms[_roomNum].taker */\n      0x03\n      add\n        /* \"contracts/RPS.sol\":5054:5080  rooms[_roomNum].taker.addr */\n      0x00\n      add\n      0x00\n      swap1\n      sload\n      swap1\n      0x0100\n      exp\n      swap1\n      div\n      0xffffffffffffffffffffffffffffffffffffffff\n      and\n        /* \"contracts/RPS.sol\":5054:5089  rooms[_roomNum].taker.addr.transfer */\n      0xffffffffffffffffffffffffffffffffffffffff\n      and\n        /* \"contracts/RPS.sol\":5054:5158  rooms[_roomNum].taker.addr.transfer(... */\n      0x08fc\n        /* \"contracts/RPS.sol\":5107:5112  rooms */\n      0x00\n        /* \"contracts/RPS.sol\":5107:5122  rooms[_roomNum] */\n      dup1\n        /* \"contracts/RPS.sol\":5113:5121  _roomNum */\n      dup7\n        /* \"contracts/RPS.sol\":5107:5122  rooms[_roomNum] */\n      dup2\n      mstore\n      0x20\n      add\n      swap1\n      dup2\n      mstore\n      0x20\n      add\n      0x00\n      keccak256\n        /* \"contracts/RPS.sol\":5107:5128  rooms[_roomNum].taker */\n      0x03\n      add\n        /* \"contracts/RPS.sol\":5107:5144  rooms[_roomNum].taker.playerBetAmount */\n      0x01\n      add\n      sload\n        /* \"contracts/RPS.sol\":5054:5158  rooms[_roomNum].taker.addr.transfer(... */\n      swap1\n      dup2\n      iszero\n      mul\n      swap1\n      mload(0x40)\n      0x00\n      mload(0x40)\n      dup1\n      dup4\n      sub\n      dup2\n      dup6\n      dup9\n      dup9\n      call\n      swap4\n      pop\n      pop\n      pop\n      pop\n      iszero\n      dup1\n      iszero\n      tag_104\n      jumpi\n      returndatasize\n      0x00\n      dup1\n      returndatacopy\n      revert(0x00, returndatasize)\n    tag_104:\n      pop\n        /* \"contracts/RPS.sol\":4700:6241  if (... */\n      jump(tag_105)\n    tag_100:\n        /* \"contracts/RPS.sol\":5308:5331  PlayerStatus.STATUS_WIN */\n      0x00\n        /* \"contracts/RPS.sol\":5249:5331  rooms[_roomNum].originator.playerStatus ==... */\n      0x03\n      dup2\n      gt\n      iszero\n      tag_106\n      jumpi\n      tag_107\n      tag_22\n      jump\t// in\n    tag_107:\n    tag_106:\n        /* \"contracts/RPS.sol\":5249:5254  rooms */\n      0x00\n        /* \"contracts/RPS.sol\":5249:5264  rooms[_roomNum] */\n      dup1\n        /* \"contracts/RPS.sol\":5255:5263  _roomNum */\n      dup6\n        /* \"contracts/RPS.sol\":5249:5264  rooms[_roomNum] */\n      dup2\n      mstore\n      0x20\n      add\n      swap1\n      dup2\n      mstore\n      0x20\n      add\n      0x00\n      keccak256\n        /* \"contracts/RPS.sol\":5249:5275  rooms[_roomNum].originator */\n      0x00\n      add\n        /* \"contracts/RPS.sol\":5249:5288  rooms[_roomNum].originator.playerStatus */\n      0x02\n      add\n      0x01\n      swap1\n      sload\n      swap1\n      0x0100\n      exp\n      swap1\n      div\n      0xff\n      and\n        /* \"contracts/RPS.sol\":5249:5331  rooms[_roomNum].originator.playerStatus ==... */\n      0x03\n      dup2\n      gt\n      iszero\n      tag_108\n      jumpi\n      tag_109\n      tag_22\n      jump\t// in\n    tag_109:\n    tag_108:\n      eq\n        /* \"contracts/RPS.sol\":5228:6115  if (... */\n      iszero\n      tag_110\n      jumpi\n        /* \"contracts/RPS.sol\":5407:5412  rooms */\n      0x00\n        /* \"contracts/RPS.sol\":5407:5422  rooms[_roomNum] */\n      dup1\n        /* \"contracts/RPS.sol\":5413:5421  _roomNum */\n      dup5\n        /* \"contracts/RPS.sol\":5407:5422  rooms[_roomNum] */\n      dup2\n      mstore\n      0x20\n      add\n      swap1\n      dup2\n      mstore\n      0x20\n      add\n      0x00\n      keccak256\n        /* \"contracts/RPS.sol\":5407:5433  rooms[_roomNum].originator */\n      0x00\n      add\n        /* \"contracts/RPS.sol\":5407:5438  rooms[_roomNum].originator.addr */\n      0x00\n      add\n      0x00\n      swap1\n      sload\n      swap1\n      0x0100\n      exp\n      swap1\n      div\n      0xffffffffffffffffffffffffffffffffffffffff\n      and\n        /* \"contracts/RPS.sol\":5407:5447  rooms[_roomNum].originator.addr.transfer */\n      0xffffffffffffffffffffffffffffffffffffffff\n      and\n        /* \"contracts/RPS.sol\":5407:5512  rooms[_roomNum].originator.addr.transfer(... */\n      0x08fc\n        /* \"contracts/RPS.sol\":5469:5474  rooms */\n      0x00\n        /* \"contracts/RPS.sol\":5469:5484  rooms[_roomNum] */\n      dup1\n        /* \"contracts/RPS.sol\":5475:5483  _roomNum */\n      dup7\n        /* \"contracts/RPS.sol\":5469:5484  rooms[_roomNum] */\n      dup2\n      mstore\n      0x20\n      add\n      swap1\n      dup2\n      mstore\n      0x20\n      add\n      0x00\n      keccak256\n        /* \"contracts/RPS.sol\":5469:5494  rooms[_roomNum].betAmount */\n      0x06\n      add\n      sload\n        /* \"contracts/RPS.sol\":5407:5512  rooms[_roomNum].originator.addr.transfer(... */\n      swap1\n      dup2\n      iszero\n      mul\n      swap1\n      mload(0x40)\n      0x00\n      mload(0x40)\n      dup1\n      dup4\n      sub\n      dup2\n      dup6\n      dup9\n      dup9\n      call\n      swap4\n      pop\n      pop\n      pop\n      pop\n      iszero\n      dup1\n      iszero\n      tag_112\n      jumpi\n      returndatasize\n      0x00\n      dup1\n      returndatacopy\n      revert(0x00, returndatasize)\n    tag_112:\n      pop\n        /* \"contracts/RPS.sol\":5228:6115  if (... */\n      jump(tag_113)\n    tag_110:\n        /* \"contracts/RPS.sol\":5592:5615  PlayerStatus.STATUS_WIN */\n      0x00\n        /* \"contracts/RPS.sol\":5554:5615  rooms[_roomNum].taker.playerStatus == PlayerStatus.STATUS_WIN */\n      0x03\n      dup2\n      gt\n      iszero\n      tag_114\n      jumpi\n      tag_115\n      tag_22\n      jump\t// in\n    tag_115:\n    tag_114:\n        /* \"contracts/RPS.sol\":5554:5559  rooms */\n      0x00\n        /* \"contracts/RPS.sol\":5554:5569  rooms[_roomNum] */\n      dup1\n        /* \"contracts/RPS.sol\":5560:5568  _roomNum */\n      dup6\n        /* \"contracts/RPS.sol\":5554:5569  rooms[_roomNum] */\n      dup2\n      mstore\n      0x20\n      add\n      swap1\n      dup2\n      mstore\n      0x20\n      add\n      0x00\n      keccak256\n        /* \"contracts/RPS.sol\":5554:5575  rooms[_roomNum].taker */\n      0x03\n      add\n        /* \"contracts/RPS.sol\":5554:5588  rooms[_roomNum].taker.playerStatus */\n      0x02\n      add\n      0x01\n      swap1\n      sload\n      swap1\n      0x0100\n      exp\n      swap1\n      div\n      0xff\n      and\n        /* \"contracts/RPS.sol\":5554:5615  rooms[_roomNum].taker.playerStatus == PlayerStatus.STATUS_WIN */\n      0x03\n      dup2\n      gt\n      iszero\n      tag_116\n      jumpi\n      tag_117\n      tag_22\n      jump\t// in\n    tag_117:\n    tag_116:\n      eq\n        /* \"contracts/RPS.sol\":5533:6115  if (... */\n      iszero\n      tag_118\n      jumpi\n        /* \"contracts/RPS.sol\":5694:5699  rooms */\n      0x00\n        /* \"contracts/RPS.sol\":5694:5709  rooms[_roomNum] */\n      dup1\n        /* \"contracts/RPS.sol\":5700:5708  _roomNum */\n      dup5\n        /* \"contracts/RPS.sol\":5694:5709  rooms[_roomNum] */\n      dup2\n      mstore\n      0x20\n      add\n      swap1\n      dup2\n      mstore\n      0x20\n      add\n      0x00\n      keccak256\n        /* \"contracts/RPS.sol\":5694:5715  rooms[_roomNum].taker */\n      0x03\n      add\n        /* \"contracts/RPS.sol\":5694:5720  rooms[_roomNum].taker.addr */\n      0x00\n      add\n      0x00\n      swap1\n      sload\n      swap1\n      0x0100\n      exp\n      swap1\n      div\n      0xffffffffffffffffffffffffffffffffffffffff\n      and\n        /* \"contracts/RPS.sol\":5694:5729  rooms[_roomNum].taker.addr.transfer */\n      0xffffffffffffffffffffffffffffffffffffffff\n      and\n        /* \"contracts/RPS.sol\":5694:5756  rooms[_roomNum].taker.addr.transfer(rooms[_roomNum].betAmount) */\n      0x08fc\n        /* \"contracts/RPS.sol\":5730:5735  rooms */\n      0x00\n        /* \"contracts/RPS.sol\":5730:5745  rooms[_roomNum] */\n      dup1\n        /* \"contracts/RPS.sol\":5736:5744  _roomNum */\n      dup7\n        /* \"contracts/RPS.sol\":5730:5745  rooms[_roomNum] */\n      dup2\n      mstore\n      0x20\n      add\n      swap1\n      dup2\n      mstore\n      0x20\n      add\n      0x00\n      keccak256\n        /* \"contracts/RPS.sol\":5730:5755  rooms[_roomNum].betAmount */\n      0x06\n      add\n      sload\n        /* \"contracts/RPS.sol\":5694:5756  rooms[_roomNum].taker.addr.transfer(rooms[_roomNum].betAmount) */\n      swap1\n      dup2\n      iszero\n      mul\n      swap1\n      mload(0x40)\n      0x00\n      mload(0x40)\n      dup1\n      dup4\n      sub\n      dup2\n      dup6\n      dup9\n      dup9\n      call\n      swap4\n      pop\n      pop\n      pop\n      pop\n      iszero\n      dup1\n      iszero\n      tag_120\n      jumpi\n      returndatasize\n      0x00\n      dup1\n      returndatacopy\n      revert(0x00, returndatasize)\n    tag_120:\n      pop\n        /* \"contracts/RPS.sol\":5533:6115  if (... */\n      jump(tag_121)\n    tag_118:\n        /* \"contracts/RPS.sol\":5848:5853  rooms */\n      0x00\n        /* \"contracts/RPS.sol\":5848:5863  rooms[_roomNum] */\n      dup1\n        /* \"contracts/RPS.sol\":5854:5862  _roomNum */\n      dup5\n        /* \"contracts/RPS.sol\":5848:5863  rooms[_roomNum] */\n      dup2\n      mstore\n      0x20\n      add\n      swap1\n      dup2\n      mstore\n      0x20\n      add\n      0x00\n      keccak256\n        /* \"contracts/RPS.sol\":5848:5874  rooms[_roomNum].originator */\n      0x00\n      add\n        /* \"contracts/RPS.sol\":5848:5879  rooms[_roomNum].originator.addr */\n      0x00\n      add\n      0x00\n      swap1\n      sload\n      swap1\n      0x0100\n      exp\n      swap1\n      div\n      0xffffffffffffffffffffffffffffffffffffffff\n      and\n        /* \"contracts/RPS.sol\":5848:5888  rooms[_roomNum].originator.addr.transfer */\n      0xffffffffffffffffffffffffffffffffffffffff\n      and\n        /* \"contracts/RPS.sol\":5848:5970  rooms[_roomNum].originator.addr.transfer(... */\n      0x08fc\n        /* \"contracts/RPS.sol\":5910:5915  rooms */\n      0x00\n        /* \"contracts/RPS.sol\":5910:5925  rooms[_roomNum] */\n      dup1\n        /* \"contracts/RPS.sol\":5916:5924  _roomNum */\n      dup7\n        /* \"contracts/RPS.sol\":5910:5925  rooms[_roomNum] */\n      dup2\n      mstore\n      0x20\n      add\n      swap1\n      dup2\n      mstore\n      0x20\n      add\n      0x00\n      keccak256\n        /* \"contracts/RPS.sol\":5910:5936  rooms[_roomNum].originator */\n      0x00\n      add\n        /* \"contracts/RPS.sol\":5910:5952  rooms[_roomNum].originator.playerBetAmount */\n      0x01\n      add\n      sload\n        /* \"contracts/RPS.sol\":5848:5970  rooms[_roomNum].originator.addr.transfer(... */\n      swap1\n      dup2\n      iszero\n      mul\n      swap1\n      mload(0x40)\n      0x00\n      mload(0x40)\n      dup1\n      dup4\n      sub\n      dup2\n      dup6\n      dup9\n      dup9\n      call\n      swap4\n      pop\n      pop\n      pop\n      pop\n      iszero\n      dup1\n      iszero\n      tag_123\n      jumpi\n      returndatasize\n      0x00\n      dup1\n      returndatacopy\n      revert(0x00, returndatasize)\n    tag_123:\n      pop\n        /* \"contracts/RPS.sol\":5988:5993  rooms */\n      0x00\n        /* \"contracts/RPS.sol\":5988:6003  rooms[_roomNum] */\n      dup1\n        /* \"contracts/RPS.sol\":5994:6002  _roomNum */\n      dup5\n        /* \"contracts/RPS.sol\":5988:6003  rooms[_roomNum] */\n      dup2\n      mstore\n      0x20\n      add\n      swap1\n      dup2\n      mstore\n      0x20\n      add\n      0x00\n      keccak256\n        /* \"contracts/RPS.sol\":5988:6009  rooms[_roomNum].taker */\n      0x03\n      add\n        /* \"contracts/RPS.sol\":5988:6014  rooms[_roomNum].taker.addr */\n      0x00\n      add\n      0x00\n      swap1\n      sload\n      swap1\n      0x0100\n      exp\n      swap1\n      div\n      0xffffffffffffffffffffffffffffffffffffffff\n      and\n        /* \"contracts/RPS.sol\":5988:6023  rooms[_roomNum].taker.addr.transfer */\n      0xffffffffffffffffffffffffffffffffffffffff\n      and\n        /* \"contracts/RPS.sol\":5988:6100  rooms[_roomNum].taker.addr.transfer(... */\n      0x08fc\n        /* \"contracts/RPS.sol\":6045:6050  rooms */\n      0x00\n        /* \"contracts/RPS.sol\":6045:6060  rooms[_roomNum] */\n      dup1\n        /* \"contracts/RPS.sol\":6051:6059  _roomNum */\n      dup7\n        /* \"contracts/RPS.sol\":6045:6060  rooms[_roomNum] */\n      dup2\n      mstore\n      0x20\n      add\n      swap1\n      dup2\n      mstore\n      0x20\n      add\n      0x00\n      keccak256\n        /* \"contracts/RPS.sol\":6045:6066  rooms[_roomNum].taker */\n      0x03\n      add\n        /* \"contracts/RPS.sol\":6045:6082  rooms[_roomNum].taker.playerBetAmount */\n      0x01\n      add\n      sload\n        /* \"contracts/RPS.sol\":5988:6100  rooms[_roomNum].taker.addr.transfer(... */\n      swap1\n      dup2\n      iszero\n      mul\n      swap1\n      mload(0x40)\n      0x00\n      mload(0x40)\n      dup1\n      dup4\n      sub\n      dup2\n      dup6\n      dup9\n      dup9\n      call\n      swap4\n      pop\n      pop\n      pop\n      pop\n      iszero\n      dup1\n      iszero\n      tag_125\n      jumpi\n      returndatasize\n      0x00\n      dup1\n      returndatacopy\n      revert(0x00, returndatasize)\n    tag_125:\n      pop\n        /* \"contracts/RPS.sol\":5533:6115  if (... */\n    tag_121:\n        /* \"contracts/RPS.sol\":5228:6115  if (... */\n    tag_113:\n        /* \"contracts/RPS.sol\":6157:6183  GameStatus.STATUS_COMPLETE */\n      0x02\n        /* \"contracts/RPS.sol\":6128:6133  rooms */\n      0x00\n        /* \"contracts/RPS.sol\":6128:6143  rooms[_roomNum] */\n      dup1\n        /* \"contracts/RPS.sol\":6134:6142  _roomNum */\n      dup6\n        /* \"contracts/RPS.sol\":6128:6143  rooms[_roomNum] */\n      dup2\n      mstore\n      0x20\n      add\n      swap1\n      dup2\n      mstore\n      0x20\n      add\n      0x00\n      keccak256\n        /* \"contracts/RPS.sol\":6128:6154  rooms[_roomNum].gameStatus */\n      0x07\n      add\n      0x00\n        /* \"contracts/RPS.sol\":6128:6183  rooms[_roomNum].gameStatus = GameStatus.STATUS_COMPLETE */\n      0x0100\n      exp\n      dup2\n      sload\n      dup2\n      0xff\n      mul\n      not\n      and\n      swap1\n      dup4\n      0x03\n      dup2\n      gt\n      iszero\n      tag_126\n      jumpi\n      tag_127\n      tag_22\n      jump\t// in\n    tag_127:\n    tag_126:\n      mul\n      or\n      swap1\n      sstore\n      pop\n        /* \"contracts/RPS.sol\":4700:6241  if (... */\n    tag_105:\n        /* \"contracts/RPS.sol\":4582:6247  function payout(uint256 _roomNum)... */\n      pop\n      pop\n      pop\n      jump\t// out\n        /* \"contracts/RPS.sol\":3320:4454  function compareHands(uint256 _roomNum) private {... */\n    tag_86:\n        /* \"contracts/RPS.sol\":3378:3394  uint8 originator */\n      0x00\n        /* \"contracts/RPS.sol\":3403:3408  rooms */\n      dup1\n        /* \"contracts/RPS.sol\":3403:3418  rooms[_roomNum] */\n      0x00\n        /* \"contracts/RPS.sol\":3409:3417  _roomNum */\n      dup4\n        /* \"contracts/RPS.sol\":3403:3418  rooms[_roomNum] */\n      dup2\n      mstore\n      0x20\n      add\n      swap1\n      dup2\n      mstore\n      0x20\n      add\n      0x00\n      keccak256\n        /* \"contracts/RPS.sol\":3403:3429  rooms[_roomNum].originator */\n      0x00\n      add\n        /* \"contracts/RPS.sol\":3403:3434  rooms[_roomNum].originator.hand */\n      0x02\n      add\n      0x00\n      swap1\n      sload\n      swap1\n      0x0100\n      exp\n      swap1\n      div\n      0xff\n      and\n        /* \"contracts/RPS.sol\":3397:3435  uint8(rooms[_roomNum].originator.hand) */\n      0x02\n      dup2\n      gt\n      iszero\n      tag_129\n      jumpi\n      tag_130\n      tag_22\n      jump\t// in\n    tag_130:\n    tag_129:\n        /* \"contracts/RPS.sol\":3378:3435  uint8 originator = uint8(rooms[_roomNum].originator.hand) */\n      swap1\n      pop\n        /* \"contracts/RPS.sol\":3445:3456  uint8 taker */\n      0x00\n        /* \"contracts/RPS.sol\":3465:3470  rooms */\n      dup1\n        /* \"contracts/RPS.sol\":3465:3480  rooms[_roomNum] */\n      0x00\n        /* \"contracts/RPS.sol\":3471:3479  _roomNum */\n      dup5\n        /* \"contracts/RPS.sol\":3465:3480  rooms[_roomNum] */\n      dup2\n      mstore\n      0x20\n      add\n      swap1\n      dup2\n      mstore\n      0x20\n      add\n      0x00\n      keccak256\n        /* \"contracts/RPS.sol\":3465:3486  rooms[_roomNum].taker */\n      0x03\n      add\n        /* \"contracts/RPS.sol\":3465:3491  rooms[_roomNum].taker.hand */\n      0x02\n      add\n      0x00\n      swap1\n      sload\n      swap1\n      0x0100\n      exp\n      swap1\n      div\n      0xff\n      and\n        /* \"contracts/RPS.sol\":3459:3492  uint8(rooms[_roomNum].taker.hand) */\n      0x02\n      dup2\n      gt\n      iszero\n      tag_131\n      jumpi\n      tag_132\n      tag_22\n      jump\t// in\n    tag_132:\n    tag_131:\n        /* \"contracts/RPS.sol\":3445:3492  uint8 taker = uint8(rooms[_roomNum].taker.hand) */\n      swap1\n      pop\n        /* \"contracts/RPS.sol\":3580:3605  GameStatus.STATUS_STARTED */\n      0x01\n        /* \"contracts/RPS.sol\":3551:3556  rooms */\n      0x00\n        /* \"contracts/RPS.sol\":3551:3566  rooms[_roomNum] */\n      dup1\n        /* \"contracts/RPS.sol\":3557:3565  _roomNum */\n      dup6\n        /* \"contracts/RPS.sol\":3551:3566  rooms[_roomNum] */\n      dup2\n      mstore\n      0x20\n      add\n      swap1\n      dup2\n      mstore\n      0x20\n      add\n      0x00\n      keccak256\n        /* \"contracts/RPS.sol\":3551:3577  rooms[_roomNum].gameStatus */\n      0x07\n      add\n      0x00\n        /* \"contracts/RPS.sol\":3551:3605  rooms[_roomNum].gameStatus = GameStatus.STATUS_STARTED */\n      0x0100\n      exp\n      dup2\n      sload\n      dup2\n      0xff\n      mul\n      not\n      and\n      swap1\n      dup4\n      0x03\n      dup2\n      gt\n      iszero\n      tag_133\n      jumpi\n      tag_134\n      tag_22\n      jump\t// in\n    tag_134:\n    tag_133:\n      mul\n      or\n      swap1\n      sstore\n      pop\n        /* \"contracts/RPS.sol\":3629:3639  originator */\n      dup2\n        /* \"contracts/RPS.sol\":3620:3639  taker == originator */\n      0xff\n      and\n        /* \"contracts/RPS.sol\":3620:3625  taker */\n      dup2\n        /* \"contracts/RPS.sol\":3620:3639  taker == originator */\n      0xff\n      and\n      eq\n        /* \"contracts/RPS.sol\":3616:4448  if (taker == originator) {... */\n      iszero\n      tag_135\n      jumpi\n        /* \"contracts/RPS.sol\":3726:3749  PlayerStatus.STATUS_TIE */\n      0x02\n        /* \"contracts/RPS.sol\":3684:3689  rooms */\n      0x00\n        /* \"contracts/RPS.sol\":3684:3699  rooms[_roomNum] */\n      dup1\n        /* \"contracts/RPS.sol\":3690:3698  _roomNum */\n      dup6\n        /* \"contracts/RPS.sol\":3684:3699  rooms[_roomNum] */\n      dup2\n      mstore\n      0x20\n      add\n      swap1\n      dup2\n      mstore\n      0x20\n      add\n      0x00\n      keccak256\n        /* \"contracts/RPS.sol\":3684:3710  rooms[_roomNum].originator */\n      0x00\n      add\n        /* \"contracts/RPS.sol\":3684:3723  rooms[_roomNum].originator.playerStatus */\n      0x02\n      add\n      0x01\n        /* \"contracts/RPS.sol\":3684:3749  rooms[_roomNum].originator.playerStatus = PlayerStatus.STATUS_TIE */\n      0x0100\n      exp\n      dup2\n      sload\n      dup2\n      0xff\n      mul\n      not\n      and\n      swap1\n      dup4\n      0x03\n      dup2\n      gt\n      iszero\n      tag_136\n      jumpi\n      tag_137\n      tag_22\n      jump\t// in\n    tag_137:\n    tag_136:\n      mul\n      or\n      swap1\n      sstore\n      pop\n        /* \"contracts/RPS.sol\":3800:3823  PlayerStatus.STATUS_TIE */\n      0x02\n        /* \"contracts/RPS.sol\":3763:3768  rooms */\n      0x00\n        /* \"contracts/RPS.sol\":3763:3778  rooms[_roomNum] */\n      dup1\n        /* \"contracts/RPS.sol\":3769:3777  _roomNum */\n      dup6\n        /* \"contracts/RPS.sol\":3763:3778  rooms[_roomNum] */\n      dup2\n      mstore\n      0x20\n      add\n      swap1\n      dup2\n      mstore\n      0x20\n      add\n      0x00\n      keccak256\n        /* \"contracts/RPS.sol\":3763:3784  rooms[_roomNum].taker */\n      0x03\n      add\n        /* \"contracts/RPS.sol\":3763:3797  rooms[_roomNum].taker.playerStatus */\n      0x02\n      add\n      0x01\n        /* \"contracts/RPS.sol\":3763:3823  rooms[_roomNum].taker.playerStatus = PlayerStatus.STATUS_TIE */\n      0x0100\n      exp\n      dup2\n      sload\n      dup2\n      0xff\n      mul\n      not\n      and\n      swap1\n      dup4\n      0x03\n      dup2\n      gt\n      iszero\n      tag_138\n      jumpi\n      tag_139\n      tag_22\n      jump\t// in\n    tag_139:\n    tag_138:\n      mul\n      or\n      swap1\n      sstore\n      pop\n        /* \"contracts/RPS.sol\":3616:4448  if (taker == originator) {... */\n      jump(tag_140)\n    tag_135:\n        /* \"contracts/RPS.sol\":3863:3873  originator */\n      dup2\n        /* \"contracts/RPS.sol\":3844:3873  (taker + 1) % 3 == originator */\n      0xff\n      and\n        /* \"contracts/RPS.sol\":3858:3859  3 */\n      0x03\n        /* \"contracts/RPS.sol\":3853:3854  1 */\n      0x01\n        /* \"contracts/RPS.sol\":3845:3850  taker */\n      dup4\n        /* \"contracts/RPS.sol\":3845:3854  taker + 1 */\n      tag_141\n      swap2\n      swap1\n      tag_142\n      jump\t// in\n    tag_141:\n        /* \"contracts/RPS.sol\":3844:3859  (taker + 1) % 3 */\n      tag_143\n      swap2\n      swap1\n      tag_144\n      jump\t// in\n    tag_143:\n        /* \"contracts/RPS.sol\":3844:3873  (taker + 1) % 3 == originator */\n      0xff\n      and\n      eq\n        /* \"contracts/RPS.sol\":3840:4448  if ((taker + 1) % 3 == originator) {... */\n      iszero\n      tag_145\n      jumpi\n        /* \"contracts/RPS.sol\":3970:3993  PlayerStatus.STATUS_WIN */\n      0x00\n        /* \"contracts/RPS.sol\":3928:3933  rooms */\n      dup1\n        /* \"contracts/RPS.sol\":3928:3943  rooms[_roomNum] */\n      0x00\n        /* \"contracts/RPS.sol\":3934:3942  _roomNum */\n      dup6\n        /* \"contracts/RPS.sol\":3928:3943  rooms[_roomNum] */\n      dup2\n      mstore\n      0x20\n      add\n      swap1\n      dup2\n      mstore\n      0x20\n      add\n      0x00\n      keccak256\n        /* \"contracts/RPS.sol\":3928:3954  rooms[_roomNum].originator */\n      0x00\n      add\n        /* \"contracts/RPS.sol\":3928:3967  rooms[_roomNum].originator.playerStatus */\n      0x02\n      add\n      0x01\n        /* \"contracts/RPS.sol\":3928:3993  rooms[_roomNum].originator.playerStatus = PlayerStatus.STATUS_WIN */\n      0x0100\n      exp\n      dup2\n      sload\n      dup2\n      0xff\n      mul\n      not\n      and\n      swap1\n      dup4\n      0x03\n      dup2\n      gt\n      iszero\n      tag_146\n      jumpi\n      tag_147\n      tag_22\n      jump\t// in\n    tag_147:\n    tag_146:\n      mul\n      or\n      swap1\n      sstore\n      pop\n        /* \"contracts/RPS.sol\":4044:4068  PlayerStatus.STATUS_LOSE */\n      0x01\n        /* \"contracts/RPS.sol\":4007:4012  rooms */\n      0x00\n        /* \"contracts/RPS.sol\":4007:4022  rooms[_roomNum] */\n      dup1\n        /* \"contracts/RPS.sol\":4013:4021  _roomNum */\n      dup6\n        /* \"contracts/RPS.sol\":4007:4022  rooms[_roomNum] */\n      dup2\n      mstore\n      0x20\n      add\n      swap1\n      dup2\n      mstore\n      0x20\n      add\n      0x00\n      keccak256\n        /* \"contracts/RPS.sol\":4007:4028  rooms[_roomNum].taker */\n      0x03\n      add\n        /* \"contracts/RPS.sol\":4007:4041  rooms[_roomNum].taker.playerStatus */\n      0x02\n      add\n      0x01\n        /* \"contracts/RPS.sol\":4007:4068  rooms[_roomNum].taker.playerStatus = PlayerStatus.STATUS_LOSE */\n      0x0100\n      exp\n      dup2\n      sload\n      dup2\n      0xff\n      mul\n      not\n      and\n      swap1\n      dup4\n      0x03\n      dup2\n      gt\n      iszero\n      tag_148\n      jumpi\n      tag_149\n      tag_22\n      jump\t// in\n    tag_149:\n    tag_148:\n      mul\n      or\n      swap1\n      sstore\n      pop\n        /* \"contracts/RPS.sol\":3840:4448  if ((taker + 1) % 3 == originator) {... */\n      jump(tag_150)\n    tag_145:\n        /* \"contracts/RPS.sol\":4108:4113  taker */\n      dup1\n        /* \"contracts/RPS.sol\":4089:4113  (taker + 1) % 3 == taker */\n      0xff\n      and\n        /* \"contracts/RPS.sol\":4103:4104  3 */\n      0x03\n        /* \"contracts/RPS.sol\":4098:4099  1 */\n      0x01\n        /* \"contracts/RPS.sol\":4090:4095  taker */\n      dup4\n        /* \"contracts/RPS.sol\":4090:4099  taker + 1 */\n      tag_151\n      swap2\n      swap1\n      tag_142\n      jump\t// in\n    tag_151:\n        /* \"contracts/RPS.sol\":4089:4104  (taker + 1) % 3 */\n      tag_152\n      swap2\n      swap1\n      tag_144\n      jump\t// in\n    tag_152:\n        /* \"contracts/RPS.sol\":4089:4113  (taker + 1) % 3 == taker */\n      0xff\n      and\n      eq\n        /* \"contracts/RPS.sol\":4085:4448  if ((taker + 1) % 3 == taker) {... */\n      iszero\n      tag_153\n      jumpi\n        /* \"contracts/RPS.sol\":4213:4237  PlayerStatus.STATUS_LOSE */\n      0x01\n        /* \"contracts/RPS.sol\":4171:4176  rooms */\n      0x00\n        /* \"contracts/RPS.sol\":4171:4186  rooms[_roomNum] */\n      dup1\n        /* \"contracts/RPS.sol\":4177:4185  _roomNum */\n      dup6\n        /* \"contracts/RPS.sol\":4171:4186  rooms[_roomNum] */\n      dup2\n      mstore\n      0x20\n      add\n      swap1\n      dup2\n      mstore\n      0x20\n      add\n      0x00\n      keccak256\n        /* \"contracts/RPS.sol\":4171:4197  rooms[_roomNum].originator */\n      0x00\n      add\n        /* \"contracts/RPS.sol\":4171:4210  rooms[_roomNum].originator.playerStatus */\n      0x02\n      add\n      0x01\n        /* \"contracts/RPS.sol\":4171:4237  rooms[_roomNum].originator.playerStatus = PlayerStatus.STATUS_LOSE */\n      0x0100\n      exp\n      dup2\n      sload\n      dup2\n      0xff\n      mul\n      not\n      and\n      swap1\n      dup4\n      0x03\n      dup2\n      gt\n      iszero\n      tag_154\n      jumpi\n      tag_155\n      tag_22\n      jump\t// in\n    tag_155:\n    tag_154:\n      mul\n      or\n      swap1\n      sstore\n      pop\n        /* \"contracts/RPS.sol\":4288:4311  PlayerStatus.STATUS_WIN */\n      0x00\n        /* \"contracts/RPS.sol\":4251:4256  rooms */\n      dup1\n        /* \"contracts/RPS.sol\":4251:4266  rooms[_roomNum] */\n      0x00\n        /* \"contracts/RPS.sol\":4257:4265  _roomNum */\n      dup6\n        /* \"contracts/RPS.sol\":4251:4266  rooms[_roomNum] */\n      dup2\n      mstore\n      0x20\n      add\n      swap1\n      dup2\n      mstore\n      0x20\n      add\n      0x00\n      keccak256\n        /* \"contracts/RPS.sol\":4251:4272  rooms[_roomNum].taker */\n      0x03\n      add\n        /* \"contracts/RPS.sol\":4251:4285  rooms[_roomNum].taker.playerStatus */\n      0x02\n      add\n      0x01\n        /* \"contracts/RPS.sol\":4251:4311  rooms[_roomNum].taker.playerStatus = PlayerStatus.STATUS_WIN */\n      0x0100\n      exp\n      dup2\n      sload\n      dup2\n      0xff\n      mul\n      not\n      and\n      swap1\n      dup4\n      0x03\n      dup2\n      gt\n      iszero\n      tag_156\n      jumpi\n      tag_157\n      tag_22\n      jump\t// in\n    tag_157:\n    tag_156:\n      mul\n      or\n      swap1\n      sstore\n      pop\n        /* \"contracts/RPS.sol\":4085:4448  if ((taker + 1) % 3 == taker) {... */\n      jump(tag_158)\n    tag_153:\n        /* \"contracts/RPS.sol\":4414:4437  GameStatus.STATUS_ERROR */\n      0x03\n        /* \"contracts/RPS.sol\":4385:4390  rooms */\n      0x00\n        /* \"contracts/RPS.sol\":4385:4400  rooms[_roomNum] */\n      dup1\n        /* \"contracts/RPS.sol\":4391:4399  _roomNum */\n      dup6\n        /* \"contracts/RPS.sol\":4385:4400  rooms[_roomNum] */\n      dup2\n      mstore\n      0x20\n      add\n      swap1\n      dup2\n      mstore\n      0x20\n      add\n      0x00\n      keccak256\n        /* \"contracts/RPS.sol\":4385:4411  rooms[_roomNum].gameStatus */\n      0x07\n      add\n      0x00\n        /* \"contracts/RPS.sol\":4385:4437  rooms[_roomNum].gameStatus = GameStatus.STATUS_ERROR */\n      0x0100\n      exp\n      dup2\n      sload\n      dup2\n      0xff\n      mul\n      not\n      and\n      swap1\n      dup4\n      0x03\n      dup2\n      gt\n      iszero\n      tag_159\n      jumpi\n      tag_160\n      tag_22\n      jump\t// in\n    tag_160:\n    tag_159:\n      mul\n      or\n      swap1\n      sstore\n      pop\n        /* \"contracts/RPS.sol\":4085:4448  if ((taker + 1) % 3 == taker) {... */\n    tag_158:\n        /* \"contracts/RPS.sol\":3840:4448  if ((taker + 1) % 3 == originator) {... */\n    tag_150:\n        /* \"contracts/RPS.sol\":3616:4448  if (taker == originator) {... */\n    tag_140:\n        /* \"contracts/RPS.sol\":3368:4454  {... */\n      pop\n      pop\n        /* \"contracts/RPS.sol\":3320:4454  function compareHands(uint256 _roomNum) private {... */\n      pop\n      jump\t// out\n        /* \"#utility.yul\":7:158   */\n    tag_162:\n        /* \"#utility.yul\":59:64   */\n      0x00\n        /* \"#utility.yul\":97:103   */\n      dup2\n        /* \"#utility.yul\":84:104   */\n      calldataload\n        /* \"#utility.yul\":75:104   */\n      swap1\n      pop\n        /* \"#utility.yul\":113:152   */\n      tag_164\n        /* \"#utility.yul\":146:151   */\n      dup2\n        /* \"#utility.yul\":113:152   */\n      tag_165\n      jump\t// in\n    tag_164:\n        /* \"#utility.yul\":7:158   */\n      swap3\n      swap2\n      pop\n      pop\n      jump\t// out\n        /* \"#utility.yul\":164:303   */\n    tag_166:\n        /* \"#utility.yul\":210:215   */\n      0x00\n        /* \"#utility.yul\":248:254   */\n      dup2\n        /* \"#utility.yul\":235:255   */\n      calldataload\n        /* \"#utility.yul\":226:255   */\n      swap1\n      pop\n        /* \"#utility.yul\":264:297   */\n      tag_168\n        /* \"#utility.yul\":291:296   */\n      dup2\n        /* \"#utility.yul\":264:297   */\n      tag_169\n      jump\t// in\n    tag_168:\n        /* \"#utility.yul\":164:303   */\n      swap3\n      swap2\n      pop\n      pop\n      jump\t// out\n        /* \"#utility.yul\":309:650   */\n    tag_7:\n        /* \"#utility.yul\":374:380   */\n      0x00\n        /* \"#utility.yul\":423:425   */\n      0x20\n        /* \"#utility.yul\":411:420   */\n      dup3\n        /* \"#utility.yul\":402:409   */\n      dup5\n        /* \"#utility.yul\":398:421   */\n      sub\n        /* \"#utility.yul\":394:426   */\n      slt\n        /* \"#utility.yul\":391:510   */\n      iszero\n      tag_171\n      jumpi\n        /* \"#utility.yul\":429:508   */\n      tag_172\n      tag_173\n      jump\t// in\n    tag_172:\n        /* \"#utility.yul\":391:510   */\n    tag_171:\n        /* \"#utility.yul\":549:550   */\n      0x00\n        /* \"#utility.yul\":574:633   */\n      tag_174\n        /* \"#utility.yul\":625:632   */\n      dup5\n        /* \"#utility.yul\":616:622   */\n      dup3\n        /* \"#utility.yul\":605:614   */\n      dup6\n        /* \"#utility.yul\":601:623   */\n      add\n        /* \"#utility.yul\":574:633   */\n      tag_162\n      jump\t// in\n    tag_174:\n        /* \"#utility.yul\":564:633   */\n      swap2\n      pop\n        /* \"#utility.yul\":520:643   */\n      pop\n        /* \"#utility.yul\":309:650   */\n      swap3\n      swap2\n      pop\n      pop\n      jump\t// out\n        /* \"#utility.yul\":656:985   */\n    tag_17:\n        /* \"#utility.yul\":715:721   */\n      0x00\n        /* \"#utility.yul\":764:766   */\n      0x20\n        /* \"#utility.yul\":752:761   */\n      dup3\n        /* \"#utility.yul\":743:750   */\n      dup5\n        /* \"#utility.yul\":739:762   */\n      sub\n        /* \"#utility.yul\":735:767   */\n      slt\n        /* \"#utility.yul\":732:851   */\n      iszero\n      tag_176\n      jumpi\n        /* \"#utility.yul\":770:849   */\n      tag_177\n      tag_173\n      jump\t// in\n    tag_177:\n        /* \"#utility.yul\":732:851   */\n    tag_176:\n        /* \"#utility.yul\":890:891   */\n      0x00\n        /* \"#utility.yul\":915:968   */\n      tag_178\n        /* \"#utility.yul\":960:967   */\n      dup5\n        /* \"#utility.yul\":951:957   */\n      dup3\n        /* \"#utility.yul\":940:949   */\n      dup6\n        /* \"#utility.yul\":936:958   */\n      add\n        /* \"#utility.yul\":915:968   */\n      tag_166\n      jump\t// in\n    tag_178:\n        /* \"#utility.yul\":905:968   */\n      swap2\n      pop\n        /* \"#utility.yul\":861:978   */\n      pop\n        /* \"#utility.yul\":656:985   */\n      swap3\n      swap2\n      pop\n      pop\n      jump\t// out\n        /* \"#utility.yul\":991:1477   */\n    tag_13:\n        /* \"#utility.yul\":1065:1071   */\n      0x00\n        /* \"#utility.yul\":1073:1079   */\n      dup1\n        /* \"#utility.yul\":1122:1124   */\n      0x40\n        /* \"#utility.yul\":1110:1119   */\n      dup4\n        /* \"#utility.yul\":1101:1108   */\n      dup6\n        /* \"#utility.yul\":1097:1120   */\n      sub\n        /* \"#utility.yul\":1093:1125   */\n      slt\n        /* \"#utility.yul\":1090:1209   */\n      iszero\n      tag_180\n      jumpi\n        /* \"#utility.yul\":1128:1207   */\n      tag_181\n      tag_173\n      jump\t// in\n    tag_181:\n        /* \"#utility.yul\":1090:1209   */\n    tag_180:\n        /* \"#utility.yul\":1248:1249   */\n      0x00\n        /* \"#utility.yul\":1273:1326   */\n      tag_182\n        /* \"#utility.yul\":1318:1325   */\n      dup6\n        /* \"#utility.yul\":1309:1315   */\n      dup3\n        /* \"#utility.yul\":1298:1307   */\n      dup7\n        /* \"#utility.yul\":1294:1316   */\n      add\n        /* \"#utility.yul\":1273:1326   */\n      tag_166\n      jump\t// in\n    tag_182:\n        /* \"#utility.yul\":1263:1326   */\n      swap3\n      pop\n        /* \"#utility.yul\":1219:1336   */\n      pop\n        /* \"#utility.yul\":1375:1377   */\n      0x20\n        /* \"#utility.yul\":1401:1460   */\n      tag_183\n        /* \"#utility.yul\":1452:1459   */\n      dup6\n        /* \"#utility.yul\":1443:1449   */\n      dup3\n        /* \"#utility.yul\":1432:1441   */\n      dup7\n        /* \"#utility.yul\":1428:1450   */\n      add\n        /* \"#utility.yul\":1401:1460   */\n      tag_162\n      jump\t// in\n    tag_183:\n        /* \"#utility.yul\":1391:1460   */\n      swap2\n      pop\n        /* \"#utility.yul\":1346:1470   */\n      pop\n        /* \"#utility.yul\":991:1477   */\n      swap3\n      pop\n      swap3\n      swap1\n      pop\n      jump\t// out\n        /* \"#utility.yul\":1483:1601   */\n    tag_184:\n        /* \"#utility.yul\":1570:1594   */\n      tag_186\n        /* \"#utility.yul\":1588:1593   */\n      dup2\n        /* \"#utility.yul\":1570:1594   */\n      tag_187\n      jump\t// in\n    tag_186:\n        /* \"#utility.yul\":1565:1568   */\n      dup3\n        /* \"#utility.yul\":1558:1595   */\n      mstore\n        /* \"#utility.yul\":1483:1601   */\n      pop\n      pop\n      jump\t// out\n        /* \"#utility.yul\":1607:1829   */\n    tag_10:\n        /* \"#utility.yul\":1700:1704   */\n      0x00\n        /* \"#utility.yul\":1738:1740   */\n      0x20\n        /* \"#utility.yul\":1727:1736   */\n      dup3\n        /* \"#utility.yul\":1723:1741   */\n      add\n        /* \"#utility.yul\":1715:1741   */\n      swap1\n      pop\n        /* \"#utility.yul\":1751:1822   */\n      tag_189\n        /* \"#utility.yul\":1819:1820   */\n      0x00\n        /* \"#utility.yul\":1808:1817   */\n      dup4\n        /* \"#utility.yul\":1804:1821   */\n      add\n        /* \"#utility.yul\":1795:1801   */\n      dup5\n        /* \"#utility.yul\":1751:1822   */\n      tag_184\n      jump\t// in\n    tag_189:\n        /* \"#utility.yul\":1607:1829   */\n      swap3\n      swap2\n      pop\n      pop\n      jump\t// out\n        /* \"#utility.yul\":1916:2221   */\n    tag_58:\n        /* \"#utility.yul\":1956:1959   */\n      0x00\n        /* \"#utility.yul\":1975:1995   */\n      tag_193\n        /* \"#utility.yul\":1993:1994   */\n      dup3\n        /* \"#utility.yul\":1975:1995   */\n      tag_187\n      jump\t// in\n    tag_193:\n        /* \"#utility.yul\":1970:1995   */\n      swap2\n      pop\n        /* \"#utility.yul\":2009:2029   */\n      tag_194\n        /* \"#utility.yul\":2027:2028   */\n      dup4\n        /* \"#utility.yul\":2009:2029   */\n      tag_187\n      jump\t// in\n    tag_194:\n        /* \"#utility.yul\":2004:2029   */\n      swap3\n      pop\n        /* \"#utility.yul\":2163:2164   */\n      dup3\n        /* \"#utility.yul\":2095:2161   */\n      0xffffffffffffffffffffffffffffffffffffffffffffffffffffffffffffffff\n        /* \"#utility.yul\":2091:2165   */\n      sub\n        /* \"#utility.yul\":2088:2089   */\n      dup3\n        /* \"#utility.yul\":2085:2166   */\n      gt\n        /* \"#utility.yul\":2082:2189   */\n      iszero\n      tag_195\n      jumpi\n        /* \"#utility.yul\":2169:2187   */\n      tag_196\n      tag_197\n      jump\t// in\n    tag_196:\n        /* \"#utility.yul\":2082:2189   */\n    tag_195:\n        /* \"#utility.yul\":2213:2214   */\n      dup3\n        /* \"#utility.yul\":2210:2211   */\n      dup3\n        /* \"#utility.yul\":2206:2215   */\n      add\n        /* \"#utility.yul\":2199:2215   */\n      swap1\n      pop\n        /* \"#utility.yul\":1916:2221   */\n      swap3\n      swap2\n      pop\n      pop\n      jump\t// out\n        /* \"#utility.yul\":2227:2464   */\n    tag_142:\n        /* \"#utility.yul\":2265:2268   */\n      0x00\n        /* \"#utility.yul\":2284:2302   */\n      tag_199\n        /* \"#utility.yul\":2300:2301   */\n      dup3\n        /* \"#utility.yul\":2284:2302   */\n      tag_200\n      jump\t// in\n    tag_199:\n        /* \"#utility.yul\":2279:2302   */\n      swap2\n      pop\n        /* \"#utility.yul\":2316:2334   */\n      tag_201\n        /* \"#utility.yul\":2332:2333   */\n      dup4\n        /* \"#utility.yul\":2316:2334   */\n      tag_200\n      jump\t// in\n    tag_201:\n        /* \"#utility.yul\":2311:2334   */\n      swap3\n      pop\n        /* \"#utility.yul\":2406:2407   */\n      dup3\n        /* \"#utility.yul\":2400:2404   */\n      0xff\n        /* \"#utility.yul\":2396:2408   */\n      sub\n        /* \"#utility.yul\":2393:2394   */\n      dup3\n        /* \"#utility.yul\":2390:2409   */\n      gt\n        /* \"#utility.yul\":2387:2432   */\n      iszero\n      tag_202\n      jumpi\n        /* \"#utility.yul\":2412:2430   */\n      tag_203\n      tag_197\n      jump\t// in\n    tag_203:\n        /* \"#utility.yul\":2387:2432   */\n    tag_202:\n        /* \"#utility.yul\":2456:2457   */\n      dup3\n        /* \"#utility.yul\":2453:2454   */\n      dup3\n        /* \"#utility.yul\":2449:2458   */\n      add\n        /* \"#utility.yul\":2442:2458   */\n      swap1\n      pop\n        /* \"#utility.yul\":2227:2464   */\n      swap3\n      swap2\n      pop\n      pop\n      jump\t// out\n        /* \"#utility.yul\":2470:2547   */\n    tag_187:\n        /* \"#utility.yul\":2507:2514   */\n      0x00\n        /* \"#utility.yul\":2536:2541   */\n      dup2\n        /* \"#utility.yul\":2525:2541   */\n      swap1\n      pop\n        /* \"#utility.yul\":2470:2547   */\n      swap2\n      swap1\n      pop\n      jump\t// out\n        /* \"#utility.yul\":2553:2639   */\n    tag_200:\n        /* \"#utility.yul\":2588:2595   */\n      0x00\n        /* \"#utility.yul\":2628:2632   */\n      0xff\n        /* \"#utility.yul\":2621:2626   */\n      dup3\n        /* \"#utility.yul\":2617:2633   */\n      and\n        /* \"#utility.yul\":2606:2633   */\n      swap1\n      pop\n        /* \"#utility.yul\":2553:2639   */\n      swap2\n      swap1\n      pop\n      jump\t// out\n        /* \"#utility.yul\":2645:2815   */\n    tag_144:\n        /* \"#utility.yul\":2675:2676   */\n      0x00\n        /* \"#utility.yul\":2692:2710   */\n      tag_207\n        /* \"#utility.yul\":2708:2709   */\n      dup3\n        /* \"#utility.yul\":2692:2710   */\n      tag_200\n      jump\t// in\n    tag_207:\n        /* \"#utility.yul\":2687:2710   */\n      swap2\n      pop\n        /* \"#utility.yul\":2724:2742   */\n      tag_208\n        /* \"#utility.yul\":2740:2741   */\n      dup4\n        /* \"#utility.yul\":2724:2742   */\n      tag_200\n      jump\t// in\n    tag_208:\n        /* \"#utility.yul\":2719:2742   */\n      swap3\n      pop\n        /* \"#utility.yul\":2761:2762   */\n      dup3\n        /* \"#utility.yul\":2751:2786   */\n      tag_209\n      jumpi\n        /* \"#utility.yul\":2766:2784   */\n      tag_210\n      tag_211\n      jump\t// in\n    tag_210:\n        /* \"#utility.yul\":2751:2786   */\n    tag_209:\n        /* \"#utility.yul\":2807:2808   */\n      dup3\n        /* \"#utility.yul\":2804:2805   */\n      dup3\n        /* \"#utility.yul\":2800:2809   */\n      mod\n        /* \"#utility.yul\":2795:2809   */\n      swap1\n      pop\n        /* \"#utility.yul\":2645:2815   */\n      swap3\n      swap2\n      pop\n      pop\n      jump\t// out\n        /* \"#utility.yul\":2821:3001   */\n    tag_197:\n        /* \"#utility.yul\":2869:2946   */\n      0x4e487b7100000000000000000000000000000000000000000000000000000000\n        /* \"#utility.yul\":2866:2867   */\n      0x00\n        /* \"#utility.yul\":2859:2947   */\n      mstore\n        /* \"#utility.yul\":2966:2970   */\n      0x11\n        /* \"#utility.yul\":2963:2964   */\n      0x04\n        /* \"#utility.yul\":2956:2971   */\n      mstore\n        /* \"#utility.yul\":2990:2994   */\n      0x24\n        /* \"#utility.yul\":2987:2988   */\n      0x00\n        /* \"#utility.yul\":2980:2995   */\n      revert\n        /* \"#utility.yul\":3007:3187   */\n    tag_211:\n        /* \"#utility.yul\":3055:3132   */\n      0x4e487b7100000000000000000000000000000000000000000000000000000000\n        /* \"#utility.yul\":3052:3053   */\n      0x00\n        /* \"#utility.yul\":3045:3133   */\n      mstore\n        /* \"#utility.yul\":3152:3156   */\n      0x12\n        /* \"#utility.yul\":3149:3150   */\n      0x04\n        /* \"#utility.yul\":3142:3157   */\n      mstore\n        /* \"#utility.yul\":3176:3180   */\n      0x24\n        /* \"#utility.yul\":3173:3174   */\n      0x00\n        /* \"#utility.yul\":3166:3181   */\n      revert\n        /* \"#utility.yul\":3193:3373   */\n    tag_22:\n        /* \"#utility.yul\":3241:3318   */\n      0x4e487b7100000000000000000000000000000000000000000000000000000000\n        /* \"#utility.yul\":3238:3239   */\n      0x00\n        /* \"#utility.yul\":3231:3319   */\n      mstore\n        /* \"#utility.yul\":3338:3342   */\n      0x21\n        /* \"#utility.yul\":3335:3336   */\n      0x04\n        /* \"#utility.yul\":3328:3343   */\n      mstore\n        /* \"#utility.yul\":3362:3366   */\n      0x24\n        /* \"#utility.yul\":3359:3360   */\n      0x00\n        /* \"#utility.yul\":3352:3367   */\n      revert\n        /* \"#utility.yul\":3502:3619   */\n    tag_173:\n        /* \"#utility.yul\":3611:3612   */\n      0x00\n        /* \"#utility.yul\":3608:3609   */\n      dup1\n        /* \"#utility.yul\":3601:3613   */\n      revert\n        /* \"#utility.yul\":3625:3730   */\n    tag_165:\n        /* \"#utility.yul\":3704:3705   */\n      0x03\n        /* \"#utility.yul\":3697:3702   */\n      dup2\n        /* \"#utility.yul\":3694:3706   */\n      lt\n        /* \"#utility.yul\":3684:3724   */\n      tag_219\n      jumpi\n        /* \"#utility.yul\":3720:3721   */\n      0x00\n        /* \"#utility.yul\":3717:3718   */\n      dup1\n        /* \"#utility.yul\":3710:3722   */\n      revert\n        /* \"#utility.yul\":3684:3724   */\n    tag_219:\n        /* \"#utility.yul\":3625:3730   */\n      pop\n      jump\t// out\n        /* \"#utility.yul\":3736:3858   */\n    tag_169:\n        /* \"#utility.yul\":3809:3833   */\n      tag_221\n        /* \"#utility.yul\":3827:3832   */\n      dup2\n        /* \"#utility.yul\":3809:3833   */\n      tag_187\n      jump\t// in\n    tag_221:\n        /* \"#utility.yul\":3802:3807   */\n      dup2\n        /* \"#utility.yul\":3799:3834   */\n      eq\n        /* \"#utility.yul\":3789:3852   */\n      tag_222\n      jumpi\n        /* \"#utility.yul\":3848:3849   */\n      0x00\n        /* \"#utility.yul\":3845:3846   */\n      dup1\n        /* \"#utility.yul\":3838:3850   */\n      revert\n        /* \"#utility.yul\":3789:3852   */\n    tag_222:\n        /* \"#utility.yul\":3736:3858   */\n      pop\n      jump\t// out\n\n    auxdata: 0xa2646970667358221220902c28c231559d87b8a1ae5573e3d53f576afa6c35e9f98bdc8811231359ddc364736f6c63430008070033\n}\n",
				"bytecode": {
					"linkReferences": {},
					"object": "608060405260006001556111a0806100186000396000f3fe6080604052600436106100345760003560e01c80630f36f3b51461003957806379b1577614610069578063e115234314610085575b600080fd5b610053600480360381019061004e9190610f18565b6100a1565b6040516100609190610fc1565b60405180910390f35b610083600480360381019061007e9190610f72565b610404565b005b61009f600480360381019061009a9190610f45565b6105ff565b005b600081600060028111156100b8576100b761110f565b5b8160028111156100cb576100ca61110f565b5b14806100fb5750600160028111156100e6576100e561110f565b5b8160028111156100f9576100f861110f565b5b145b8061012957506002808111156101145761011361110f565b5b8160028111156101275761012661110f565b5b145b61013257600080fd5b604051806080016040528060405180608001604052803373ffffffffffffffffffffffffffffffffffffffff16815260200134815260200186600281111561017d5761017c61110f565b5b81526020016003808111156101955761019461110f565b5b815250815260200160405180608001604052803373ffffffffffffffffffffffffffffffffffffffff16815260200160008152602001600060028111156101df576101de61110f565b5b81526020016003808111156101f7576101f661110f565b5b8152508152602001348152602001600160038111156102195761021861110f565b5b815250600080600154815260200190815260200160002060008201518160000160008201518160000160006101000a81548173ffffffffffffffffffffffffffffffffffffffff021916908373ffffffffffffffffffffffffffffffffffffffff1602179055506020820151816001015560408201518160020160006101000a81548160ff021916908360028111156102b5576102b461110f565b5b021790555060608201518160020160016101000a81548160ff021916908360038111156102e5576102e461110f565b5b0217905550505060208201518160030160008201518160000160006101000a81548173ffffffffffffffffffffffffffffffffffffffff021916908373ffffffffffffffffffffffffffffffffffffffff1602179055506020820151816001015560408201518160020160006101000a81548160ff021916908360028111156103715761037061110f565b5b021790555060608201518160020160016101000a81548160ff021916908360038111156103a1576103a061110f565b5b021790555050506040820151816006015560608201518160070160006101000a81548160ff021916908360038111156103dd576103dc61110f565b5b02179055509050506001549150600180546103f89190610fdc565b60018190555050919050565b80600060028111156104195761041861110f565b5b81600281111561042c5761042b61110f565b5b148061045c5750600160028111156104475761044661110f565b5b81600281111561045a5761045961110f565b5b145b8061048a57506002808111156104755761047461110f565b5b8160028111156104885761048761110f565b5b145b61049357600080fd5b60405180608001604052803373ffffffffffffffffffffffffffffffffffffffff1681526020013481526020018360028111156104d3576104d261110f565b5b81526020016003808111156104eb576104ea61110f565b5b81525060008085815260200190815260200160002060030160008201518160000160006101000a81548173ffffffffffffffffffffffffffffffffffffffff021916908373ffffffffffffffffffffffffffffffffffffffff1602179055506020820151816001015560408201518160020160006101000a81548160ff0219169083600281111561057f5761057e61110f565b5b021790555060608201518160020160016101000a81548160ff021916908360038111156105af576105ae61110f565b5b021790555090505034600080858152602001908152602001600020600601546105d89190610fdc565b600080858152602001908152602001600020600601819055506105fa83610c03565b505050565b803360008083815260200190815260200160002060000160000160009054906101000a900473ffffffffffffffffffffffffffffffffffffffff1673ffffffffffffffffffffffffffffffffffffffff168173ffffffffffffffffffffffffffffffffffffffff1614806106d6575060008083815260200190815260200160002060030160000160009054906101000a900473ffffffffffffffffffffffffffffffffffffffff1673ffffffffffffffffffffffffffffffffffffffff168173ffffffffffffffffffffffffffffffffffffffff16145b6106df57600080fd5b600260038111156106f3576106f261110f565b5b60008085815260200190815260200160002060000160020160019054906101000a900460ff16600381111561072b5761072a61110f565b5b1480156107815750600260038111156107475761074661110f565b5b60008085815260200190815260200160002060030160020160019054906101000a900460ff16600381111561077f5761077e61110f565b5b145b156108b95760008084815260200190815260200160002060000160000160009054906101000a900473ffffffffffffffffffffffffffffffffffffffff1673ffffffffffffffffffffffffffffffffffffffff166108fc600080868152602001908152602001600020600001600101549081150290604051600060405180830381858888f1935050505015801561081c573d6000803e3d6000fd5b5060008084815260200190815260200160002060030160000160009054906101000a900473ffffffffffffffffffffffffffffffffffffffff1673ffffffffffffffffffffffffffffffffffffffff166108fc600080868152602001908152602001600020600301600101549081150290604051600060405180830381858888f193505050501580156108b3573d6000803e3d6000fd5b50610bfe565b600060038111156108cd576108cc61110f565b5b60008085815260200190815260200160002060000160020160019054906101000a900460ff1660038111156109055761090461110f565b5b14156109a45760008084815260200190815260200160002060000160000160009054906101000a900473ffffffffffffffffffffffffffffffffffffffff1673ffffffffffffffffffffffffffffffffffffffff166108fc600080868152602001908152602001600020600601549081150290604051600060405180830381858888f1935050505015801561099e573d6000803e3d6000fd5b50610bbf565b600060038111156109b8576109b761110f565b5b60008085815260200190815260200160002060030160020160019054906101000a900460ff1660038111156109f0576109ef61110f565b5b1415610a8f5760008084815260200190815260200160002060030160000160009054906101000a900473ffffffffffffffffffffffffffffffffffffffff1673ffffffffffffffffffffffffffffffffffffffff166108fc600080868152602001908152602001600020600601549081150290604051600060405180830381858888f19350505050158015610a89573d6000803e3d6000fd5b50610bbe565b60008084815260200190815260200160002060000160000160009054906101000a900473ffffffffffffffffffffffffffffffffffffffff1673ffffffffffffffffffffffffffffffffffffffff166108fc600080868152602001908152602001600020600001600101549081150290604051600060405180830381858888f19350505050158015610b25573d6000803e3d6000fd5b5060008084815260200190815260200160002060030160000160009054906101000a900473ffffffffffffffffffffffffffffffffffffffff1673ffffffffffffffffffffffffffffffffffffffff166108fc600080868152602001908152602001600020600301600101549081150290604051600060405180830381858888f19350505050158015610bbc573d6000803e3d6000fd5b505b5b600260008085815260200190815260200160002060070160006101000a81548160ff02191690836003811115610bf857610bf761110f565b5b02179055505b505050565b600080600083815260200190815260200160002060000160020160009054906101000a900460ff166002811115610c3d57610c3c61110f565b5b9050600080600084815260200190815260200160002060030160020160009054906101000a900460ff166002811115610c7957610c7861110f565b5b9050600160008085815260200190815260200160002060070160006101000a81548160ff02191690836003811115610cb457610cb361110f565b5b02179055508160ff168160ff161415610d4e57600260008085815260200190815260200160002060000160020160016101000a81548160ff02191690836003811115610d0357610d0261110f565b5b0217905550600260008085815260200190815260200160002060030160020160016101000a81548160ff02191690836003811115610d4457610d4361110f565b5b0217905550610ee9565b8160ff166003600183610d619190611032565b610d6b9190611080565b60ff161415610dfb57600080600085815260200190815260200160002060000160020160016101000a81548160ff02191690836003811115610db057610daf61110f565b5b0217905550600160008085815260200190815260200160002060030160020160016101000a81548160ff02191690836003811115610df157610df061110f565b5b0217905550610ee8565b8060ff166003600183610e0e9190611032565b610e189190611080565b60ff161415610ea857600160008085815260200190815260200160002060000160020160016101000a81548160ff02191690836003811115610e5d57610e5c61110f565b5b0217905550600080600085815260200190815260200160002060030160020160016101000a81548160ff02191690836003811115610e9e57610e9d61110f565b5b0217905550610ee7565b600360008085815260200190815260200160002060070160006101000a81548160ff02191690836003811115610ee157610ee061110f565b5b02179055505b5b5b505050565b600081359050610efd81611143565b92915050565b600081359050610f1281611153565b92915050565b600060208284031215610f2e57610f2d61113e565b5b6000610f3c84828501610eee565b91505092915050565b600060208284031215610f5b57610f5a61113e565b5b6000610f6984828501610f03565b91505092915050565b60008060408385031215610f8957610f8861113e565b5b6000610f9785828601610f03565b9250506020610fa885828601610eee565b9150509250929050565b610fbb81611069565b82525050565b6000602082019050610fd66000830184610fb2565b92915050565b6000610fe782611069565b9150610ff283611069565b9250827fffffffffffffffffffffffffffffffffffffffffffffffffffffffffffffffff03821115611027576110266110b1565b5b828201905092915050565b600061103d82611073565b915061104883611073565b92508260ff0382111561105e5761105d6110b1565b5b828201905092915050565b6000819050919050565b600060ff82169050919050565b600061108b82611073565b915061109683611073565b9250826110a6576110a56110e0565b5b828206905092915050565b7f4e487b7100000000000000000000000000000000000000000000000000000000600052601160045260246000fd5b7f4e487b7100000000000000000000000000000000000000000000000000000000600052601260045260246000fd5b7f4e487b7100000000000000000000000000000000000000000000000000000000600052602160045260246000fd5b600080fd5b6003811061115057600080fd5b50565b61115c81611069565b811461116757600080fd5b5056fea2646970667358221220902c28c231559d87b8a1ae5573e3d53f576afa6c35e9f98bdc8811231359ddc364736f6c63430008070033",
					"opcodes": "PUSH1 0x80 PUSH1 0x40 MSTORE PUSH1 0x0 PUSH1 0x1 SSTORE PUSH2 0x11A0 DUP1 PUSH2 0x18 PUSH1 0x0 CODECOPY PUSH1 0x0 RETURN INVALID PUSH1 0x80 PUSH1 0x40 MSTORE PUSH1 0x4 CALLDATASIZE LT PUSH2 0x34 JUMPI PUSH1 0x0 CALLDATALOAD PUSH1 0xE0 SHR DUP1 PUSH4 0xF36F3B5 EQ PUSH2 0x39 JUMPI DUP1 PUSH4 0x79B15776 EQ PUSH2 0x69 JUMPI DUP1 PUSH4 0xE1152343 EQ PUSH2 0x85 JUMPI JUMPDEST PUSH1 0x0 DUP1 REVERT JUMPDEST PUSH2 0x53 PUSH1 0x4 DUP1 CALLDATASIZE SUB DUP2 ADD SWAP1 PUSH2 0x4E SWAP2 SWAP1 PUSH2 0xF18 JUMP JUMPDEST PUSH2 0xA1 JUMP JUMPDEST PUSH1 0x40 MLOAD PUSH2 0x60 SWAP2 SWAP1 PUSH2 0xFC1 JUMP JUMPDEST PUSH1 0x40 MLOAD DUP1 SWAP2 SUB SWAP1 RETURN JUMPDEST PUSH2 0x83 PUSH1 0x4 DUP1 CALLDATASIZE SUB DUP2 ADD SWAP1 PUSH2 0x7E SWAP2 SWAP1 PUSH2 0xF72 JUMP JUMPDEST PUSH2 0x404 JUMP JUMPDEST STOP JUMPDEST PUSH2 0x9F PUSH1 0x4 DUP1 CALLDATASIZE SUB DUP2 ADD SWAP1 PUSH2 0x9A SWAP2 SWAP1 PUSH2 0xF45 JUMP JUMPDEST PUSH2 0x5FF JUMP JUMPDEST STOP JUMPDEST PUSH1 0x0 DUP2 PUSH1 0x0 PUSH1 0x2 DUP2 GT ISZERO PUSH2 0xB8 JUMPI PUSH2 0xB7 PUSH2 0x110F JUMP JUMPDEST JUMPDEST DUP2 PUSH1 0x2 DUP2 GT ISZERO PUSH2 0xCB JUMPI PUSH2 0xCA PUSH2 0x110F JUMP JUMPDEST JUMPDEST EQ DUP1 PUSH2 0xFB JUMPI POP PUSH1 0x1 PUSH1 0x2 DUP2 GT ISZERO PUSH2 0xE6 JUMPI PUSH2 0xE5 PUSH2 0x110F JUMP JUMPDEST JUMPDEST DUP2 PUSH1 0x2 DUP2 GT ISZERO PUSH2 0xF9 JUMPI PUSH2 0xF8 PUSH2 0x110F JUMP JUMPDEST JUMPDEST EQ JUMPDEST DUP1 PUSH2 0x129 JUMPI POP PUSH1 0x2 DUP1 DUP2 GT ISZERO PUSH2 0x114 JUMPI PUSH2 0x113 PUSH2 0x110F JUMP JUMPDEST JUMPDEST DUP2 PUSH1 0x2 DUP2 GT ISZERO PUSH2 0x127 JUMPI PUSH2 0x126 PUSH2 0x110F JUMP JUMPDEST JUMPDEST EQ JUMPDEST PUSH2 0x132 JUMPI PUSH1 0x0 DUP1 REVERT JUMPDEST PUSH1 0x40 MLOAD DUP1 PUSH1 0x80 ADD PUSH1 0x40 MSTORE DUP1 PUSH1 0x40 MLOAD DUP1 PUSH1 0x80 ADD PUSH1 0x40 MSTORE DUP1 CALLER PUSH20 0xFFFFFFFFFFFFFFFFFFFFFFFFFFFFFFFFFFFFFFFF AND DUP2 MSTORE PUSH1 0x20 ADD CALLVALUE DUP2 MSTORE PUSH1 0x20 ADD DUP7 PUSH1 0x2 DUP2 GT ISZERO PUSH2 0x17D JUMPI PUSH2 0x17C PUSH2 0x110F JUMP JUMPDEST JUMPDEST DUP2 MSTORE PUSH1 0x20 ADD PUSH1 0x3 DUP1 DUP2 GT ISZERO PUSH2 0x195 JUMPI PUSH2 0x194 PUSH2 0x110F JUMP JUMPDEST JUMPDEST DUP2 MSTORE POP DUP2 MSTORE PUSH1 0x20 ADD PUSH1 0x40 MLOAD DUP1 PUSH1 0x80 ADD PUSH1 0x40 MSTORE DUP1 CALLER PUSH20 0xFFFFFFFFFFFFFFFFFFFFFFFFFFFFFFFFFFFFFFFF AND DUP2 MSTORE PUSH1 0x20 ADD PUSH1 0x0 DUP2 MSTORE PUSH1 0x20 ADD PUSH1 0x0 PUSH1 0x2 DUP2 GT ISZERO PUSH2 0x1DF JUMPI PUSH2 0x1DE PUSH2 0x110F JUMP JUMPDEST JUMPDEST DUP2 MSTORE PUSH1 0x20 ADD PUSH1 0x3 DUP1 DUP2 GT ISZERO PUSH2 0x1F7 JUMPI PUSH2 0x1F6 PUSH2 0x110F JUMP JUMPDEST JUMPDEST DUP2 MSTORE POP DUP2 MSTORE PUSH1 0x20 ADD CALLVALUE DUP2 MSTORE PUSH1 0x20 ADD PUSH1 0x1 PUSH1 0x3 DUP2 GT ISZERO PUSH2 0x219 JUMPI PUSH2 0x218 PUSH2 0x110F JUMP JUMPDEST JUMPDEST DUP2 MSTORE POP PUSH1 0x0 DUP1 PUSH1 0x1 SLOAD DUP2 MSTORE PUSH1 0x20 ADD SWAP1 DUP2 MSTORE PUSH1 0x20 ADD PUSH1 0x0 KECCAK256 PUSH1 0x0 DUP3 ADD MLOAD DUP2 PUSH1 0x0 ADD PUSH1 0x0 DUP3 ADD MLOAD DUP2 PUSH1 0x0 ADD PUSH1 0x0 PUSH2 0x100 EXP DUP2 SLOAD DUP2 PUSH20 0xFFFFFFFFFFFFFFFFFFFFFFFFFFFFFFFFFFFFFFFF MUL NOT AND SWAP1 DUP4 PUSH20 0xFFFFFFFFFFFFFFFFFFFFFFFFFFFFFFFFFFFFFFFF AND MUL OR SWAP1 SSTORE POP PUSH1 0x20 DUP3 ADD MLOAD DUP2 PUSH1 0x1 ADD SSTORE PUSH1 0x40 DUP3 ADD MLOAD DUP2 PUSH1 0x2 ADD PUSH1 0x0 PUSH2 0x100 EXP DUP2 SLOAD DUP2 PUSH1 0xFF MUL NOT AND SWAP1 DUP4 PUSH1 0x2 DUP2 GT ISZERO PUSH2 0x2B5 JUMPI PUSH2 0x2B4 PUSH2 0x110F JUMP JUMPDEST JUMPDEST MUL OR SWAP1 SSTORE POP PUSH1 0x60 DUP3 ADD MLOAD DUP2 PUSH1 0x2 ADD PUSH1 0x1 PUSH2 0x100 EXP DUP2 SLOAD DUP2 PUSH1 0xFF MUL NOT AND SWAP1 DUP4 PUSH1 0x3 DUP2 GT ISZERO PUSH2 0x2E5 JUMPI PUSH2 0x2E4 PUSH2 0x110F JUMP JUMPDEST JUMPDEST MUL OR SWAP1 SSTORE POP POP POP PUSH1 0x20 DUP3 ADD MLOAD DUP2 PUSH1 0x3 ADD PUSH1 0x0 DUP3 ADD MLOAD DUP2 PUSH1 0x0 ADD PUSH1 0x0 PUSH2 0x100 EXP DUP2 SLOAD DUP2 PUSH20 0xFFFFFFFFFFFFFFFFFFFFFFFFFFFFFFFFFFFFFFFF MUL NOT AND SWAP1 DUP4 PUSH20 0xFFFFFFFFFFFFFFFFFFFFFFFFFFFFFFFFFFFFFFFF AND MUL OR SWAP1 SSTORE POP PUSH1 0x20 DUP3 ADD MLOAD DUP2 PUSH1 0x1 ADD SSTORE PUSH1 0x40 DUP3 ADD MLOAD DUP2 PUSH1 0x2 ADD PUSH1 0x0 PUSH2 0x100 EXP DUP2 SLOAD DUP2 PUSH1 0xFF MUL NOT AND SWAP1 DUP4 PUSH1 0x2 DUP2 GT ISZERO PUSH2 0x371 JUMPI PUSH2 0x370 PUSH2 0x110F JUMP JUMPDEST JUMPDEST MUL OR SWAP1 SSTORE POP PUSH1 0x60 DUP3 ADD MLOAD DUP2 PUSH1 0x2 ADD PUSH1 0x1 PUSH2 0x100 EXP DUP2 SLOAD DUP2 PUSH1 0xFF MUL NOT AND SWAP1 DUP4 PUSH1 0x3 DUP2 GT ISZERO PUSH2 0x3A1 JUMPI PUSH2 0x3A0 PUSH2 0x110F JUMP JUMPDEST JUMPDEST MUL OR SWAP1 SSTORE POP POP POP PUSH1 0x40 DUP3 ADD MLOAD DUP2 PUSH1 0x6 ADD SSTORE PUSH1 0x60 DUP3 ADD MLOAD DUP2 PUSH1 0x7 ADD PUSH1 0x0 PUSH2 0x100 EXP DUP2 SLOAD DUP2 PUSH1 0xFF MUL NOT AND SWAP1 DUP4 PUSH1 0x3 DUP2 GT ISZERO PUSH2 0x3DD JUMPI PUSH2 0x3DC PUSH2 0x110F JUMP JUMPDEST JUMPDEST MUL OR SWAP1 SSTORE POP SWAP1 POP POP PUSH1 0x1 SLOAD SWAP2 POP PUSH1 0x1 DUP1 SLOAD PUSH2 0x3F8 SWAP2 SWAP1 PUSH2 0xFDC JUMP JUMPDEST PUSH1 0x1 DUP2 SWAP1 SSTORE POP POP SWAP2 SWAP1 POP JUMP JUMPDEST DUP1 PUSH1 0x0 PUSH1 0x2 DUP2 GT ISZERO PUSH2 0x419 JUMPI PUSH2 0x418 PUSH2 0x110F JUMP JUMPDEST JUMPDEST DUP2 PUSH1 0x2 DUP2 GT ISZERO PUSH2 0x42C JUMPI PUSH2 0x42B PUSH2 0x110F JUMP JUMPDEST JUMPDEST EQ DUP1 PUSH2 0x45C JUMPI POP PUSH1 0x1 PUSH1 0x2 DUP2 GT ISZERO PUSH2 0x447 JUMPI PUSH2 0x446 PUSH2 0x110F JUMP JUMPDEST JUMPDEST DUP2 PUSH1 0x2 DUP2 GT ISZERO PUSH2 0x45A JUMPI PUSH2 0x459 PUSH2 0x110F JUMP JUMPDEST JUMPDEST EQ JUMPDEST DUP1 PUSH2 0x48A JUMPI POP PUSH1 0x2 DUP1 DUP2 GT ISZERO PUSH2 0x475 JUMPI PUSH2 0x474 PUSH2 0x110F JUMP JUMPDEST JUMPDEST DUP2 PUSH1 0x2 DUP2 GT ISZERO PUSH2 0x488 JUMPI PUSH2 0x487 PUSH2 0x110F JUMP JUMPDEST JUMPDEST EQ JUMPDEST PUSH2 0x493 JUMPI PUSH1 0x0 DUP1 REVERT JUMPDEST PUSH1 0x40 MLOAD DUP1 PUSH1 0x80 ADD PUSH1 0x40 MSTORE DUP1 CALLER PUSH20 0xFFFFFFFFFFFFFFFFFFFFFFFFFFFFFFFFFFFFFFFF AND DUP2 MSTORE PUSH1 0x20 ADD CALLVALUE DUP2 MSTORE PUSH1 0x20 ADD DUP4 PUSH1 0x2 DUP2 GT ISZERO PUSH2 0x4D3 JUMPI PUSH2 0x4D2 PUSH2 0x110F JUMP JUMPDEST JUMPDEST DUP2 MSTORE PUSH1 0x20 ADD PUSH1 0x3 DUP1 DUP2 GT ISZERO PUSH2 0x4EB JUMPI PUSH2 0x4EA PUSH2 0x110F JUMP JUMPDEST JUMPDEST DUP2 MSTORE POP PUSH1 0x0 DUP1 DUP6 DUP2 MSTORE PUSH1 0x20 ADD SWAP1 DUP2 MSTORE PUSH1 0x20 ADD PUSH1 0x0 KECCAK256 PUSH1 0x3 ADD PUSH1 0x0 DUP3 ADD MLOAD DUP2 PUSH1 0x0 ADD PUSH1 0x0 PUSH2 0x100 EXP DUP2 SLOAD DUP2 PUSH20 0xFFFFFFFFFFFFFFFFFFFFFFFFFFFFFFFFFFFFFFFF MUL NOT AND SWAP1 DUP4 PUSH20 0xFFFFFFFFFFFFFFFFFFFFFFFFFFFFFFFFFFFFFFFF AND MUL OR SWAP1 SSTORE POP PUSH1 0x20 DUP3 ADD MLOAD DUP2 PUSH1 0x1 ADD SSTORE PUSH1 0x40 DUP3 ADD MLOAD DUP2 PUSH1 0x2 ADD PUSH1 0x0 PUSH2 0x100 EXP DUP2 SLOAD DUP2 PUSH1 0xFF MUL NOT AND SWAP1 DUP4 PUSH1 0x2 DUP2 GT ISZERO PUSH2 0x57F JUMPI PUSH2 0x57E PUSH2 0x110F JUMP JUMPDEST JUMPDEST MUL OR SWAP1 SSTORE POP PUSH1 0x60 DUP3 ADD MLOAD DUP2 PUSH1 0x2 ADD PUSH1 0x1 PUSH2 0x100 EXP DUP2 SLOAD DUP2 PUSH1 0xFF MUL NOT AND SWAP1 DUP4 PUSH1 0x3 DUP2 GT ISZERO PUSH2 0x5AF JUMPI PUSH2 0x5AE PUSH2 0x110F JUMP JUMPDEST JUMPDEST MUL OR SWAP1 SSTORE POP SWAP1 POP POP CALLVALUE PUSH1 0x0 DUP1 DUP6 DUP2 MSTORE PUSH1 0x20 ADD SWAP1 DUP2 MSTORE PUSH1 0x20 ADD PUSH1 0x0 KECCAK256 PUSH1 0x6 ADD SLOAD PUSH2 0x5D8 SWAP2 SWAP1 PUSH2 0xFDC JUMP JUMPDEST PUSH1 0x0 DUP1 DUP6 DUP2 MSTORE PUSH1 0x20 ADD SWAP1 DUP2 MSTORE PUSH1 0x20 ADD PUSH1 0x0 KECCAK256 PUSH1 0x6 ADD DUP2 SWAP1 SSTORE POP PUSH2 0x5FA DUP4 PUSH2 0xC03 JUMP JUMPDEST POP POP POP JUMP JUMPDEST DUP1 CALLER PUSH1 0x0 DUP1 DUP4 DUP2 MSTORE PUSH1 0x20 ADD SWAP1 DUP2 MSTORE PUSH1 0x20 ADD PUSH1 0x0 KECCAK256 PUSH1 0x0 ADD PUSH1 0x0 ADD PUSH1 0x0 SWAP1 SLOAD SWAP1 PUSH2 0x100 EXP SWAP1 DIV PUSH20 0xFFFFFFFFFFFFFFFFFFFFFFFFFFFFFFFFFFFFFFFF AND PUSH20 0xFFFFFFFFFFFFFFFFFFFFFFFFFFFFFFFFFFFFFFFF AND DUP2 PUSH20 0xFFFFFFFFFFFFFFFFFFFFFFFFFFFFFFFFFFFFFFFF AND EQ DUP1 PUSH2 0x6D6 JUMPI POP PUSH1 0x0 DUP1 DUP4 DUP2 MSTORE PUSH1 0x20 ADD SWAP1 DUP2 MSTORE PUSH1 0x20 ADD PUSH1 0x0 KECCAK256 PUSH1 0x3 ADD PUSH1 0x0 ADD PUSH1 0x0 SWAP1 SLOAD SWAP1 PUSH2 0x100 EXP SWAP1 DIV PUSH20 0xFFFFFFFFFFFFFFFFFFFFFFFFFFFFFFFFFFFFFFFF AND PUSH20 0xFFFFFFFFFFFFFFFFFFFFFFFFFFFFFFFFFFFFFFFF AND DUP2 PUSH20 0xFFFFFFFFFFFFFFFFFFFFFFFFFFFFFFFFFFFFFFFF AND EQ JUMPDEST PUSH2 0x6DF JUMPI PUSH1 0x0 DUP1 REVERT JUMPDEST PUSH1 0x2 PUSH1 0x3 DUP2 GT ISZERO PUSH2 0x6F3 JUMPI PUSH2 0x6F2 PUSH2 0x110F JUMP JUMPDEST JUMPDEST PUSH1 0x0 DUP1 DUP6 DUP2 MSTORE PUSH1 0x20 ADD SWAP1 DUP2 MSTORE PUSH1 0x20 ADD PUSH1 0x0 KECCAK256 PUSH1 0x0 ADD PUSH1 0x2 ADD PUSH1 0x1 SWAP1 SLOAD SWAP1 PUSH2 0x100 EXP SWAP1 DIV PUSH1 0xFF AND PUSH1 0x3 DUP2 GT ISZERO PUSH2 0x72B JUMPI PUSH2 0x72A PUSH2 0x110F JUMP JUMPDEST JUMPDEST EQ DUP1 ISZERO PUSH2 0x781 JUMPI POP PUSH1 0x2 PUSH1 0x3 DUP2 GT ISZERO PUSH2 0x747 JUMPI PUSH2 0x746 PUSH2 0x110F JUMP JUMPDEST JUMPDEST PUSH1 0x0 DUP1 DUP6 DUP2 MSTORE PUSH1 0x20 ADD SWAP1 DUP2 MSTORE PUSH1 0x20 ADD PUSH1 0x0 KECCAK256 PUSH1 0x3 ADD PUSH1 0x2 ADD PUSH1 0x1 SWAP1 SLOAD SWAP1 PUSH2 0x100 EXP SWAP1 DIV PUSH1 0xFF AND PUSH1 0x3 DUP2 GT ISZERO PUSH2 0x77F JUMPI PUSH2 0x77E PUSH2 0x110F JUMP JUMPDEST JUMPDEST EQ JUMPDEST ISZERO PUSH2 0x8B9 JUMPI PUSH1 0x0 DUP1 DUP5 DUP2 MSTORE PUSH1 0x20 ADD SWAP1 DUP2 MSTORE PUSH1 0x20 ADD PUSH1 0x0 KECCAK256 PUSH1 0x0 ADD PUSH1 0x0 ADD PUSH1 0x0 SWAP1 SLOAD SWAP1 PUSH2 0x100 EXP SWAP1 DIV PUSH20 0xFFFFFFFFFFFFFFFFFFFFFFFFFFFFFFFFFFFFFFFF AND PUSH20 0xFFFFFFFFFFFFFFFFFFFFFFFFFFFFFFFFFFFFFFFF AND PUSH2 0x8FC PUSH1 0x0 DUP1 DUP7 DUP2 MSTORE PUSH1 0x20 ADD SWAP1 DUP2 MSTORE PUSH1 0x20 ADD PUSH1 0x0 KECCAK256 PUSH1 0x0 ADD PUSH1 0x1 ADD SLOAD SWAP1 DUP2 ISZERO MUL SWAP1 PUSH1 0x40 MLOAD PUSH1 0x0 PUSH1 0x40 MLOAD DUP1 DUP4 SUB DUP2 DUP6 DUP9 DUP9 CALL SWAP4 POP POP POP POP ISZERO DUP1 ISZERO PUSH2 0x81C JUMPI RETURNDATASIZE PUSH1 0x0 DUP1 RETURNDATACOPY RETURNDATASIZE PUSH1 0x0 REVERT JUMPDEST POP PUSH1 0x0 DUP1 DUP5 DUP2 MSTORE PUSH1 0x20 ADD SWAP1 DUP2 MSTORE PUSH1 0x20 ADD PUSH1 0x0 KECCAK256 PUSH1 0x3 ADD PUSH1 0x0 ADD PUSH1 0x0 SWAP1 SLOAD SWAP1 PUSH2 0x100 EXP SWAP1 DIV PUSH20 0xFFFFFFFFFFFFFFFFFFFFFFFFFFFFFFFFFFFFFFFF AND PUSH20 0xFFFFFFFFFFFFFFFFFFFFFFFFFFFFFFFFFFFFFFFF AND PUSH2 0x8FC PUSH1 0x0 DUP1 DUP7 DUP2 MSTORE PUSH1 0x20 ADD SWAP1 DUP2 MSTORE PUSH1 0x20 ADD PUSH1 0x0 KECCAK256 PUSH1 0x3 ADD PUSH1 0x1 ADD SLOAD SWAP1 DUP2 ISZERO MUL SWAP1 PUSH1 0x40 MLOAD PUSH1 0x0 PUSH1 0x40 MLOAD DUP1 DUP4 SUB DUP2 DUP6 DUP9 DUP9 CALL SWAP4 POP POP POP POP ISZERO DUP1 ISZERO PUSH2 0x8B3 JUMPI RETURNDATASIZE PUSH1 0x0 DUP1 RETURNDATACOPY RETURNDATASIZE PUSH1 0x0 REVERT JUMPDEST POP PUSH2 0xBFE JUMP JUMPDEST PUSH1 0x0 PUSH1 0x3 DUP2 GT ISZERO PUSH2 0x8CD JUMPI PUSH2 0x8CC PUSH2 0x110F JUMP JUMPDEST JUMPDEST PUSH1 0x0 DUP1 DUP6 DUP2 MSTORE PUSH1 0x20 ADD SWAP1 DUP2 MSTORE PUSH1 0x20 ADD PUSH1 0x0 KECCAK256 PUSH1 0x0 ADD PUSH1 0x2 ADD PUSH1 0x1 SWAP1 SLOAD SWAP1 PUSH2 0x100 EXP SWAP1 DIV PUSH1 0xFF AND PUSH1 0x3 DUP2 GT ISZERO PUSH2 0x905 JUMPI PUSH2 0x904 PUSH2 0x110F JUMP JUMPDEST JUMPDEST EQ ISZERO PUSH2 0x9A4 JUMPI PUSH1 0x0 DUP1 DUP5 DUP2 MSTORE PUSH1 0x20 ADD SWAP1 DUP2 MSTORE PUSH1 0x20 ADD PUSH1 0x0 KECCAK256 PUSH1 0x0 ADD PUSH1 0x0 ADD PUSH1 0x0 SWAP1 SLOAD SWAP1 PUSH2 0x100 EXP SWAP1 DIV PUSH20 0xFFFFFFFFFFFFFFFFFFFFFFFFFFFFFFFFFFFFFFFF AND PUSH20 0xFFFFFFFFFFFFFFFFFFFFFFFFFFFFFFFFFFFFFFFF AND PUSH2 0x8FC PUSH1 0x0 DUP1 DUP7 DUP2 MSTORE PUSH1 0x20 ADD SWAP1 DUP2 MSTORE PUSH1 0x20 ADD PUSH1 0x0 KECCAK256 PUSH1 0x6 ADD SLOAD SWAP1 DUP2 ISZERO MUL SWAP1 PUSH1 0x40 MLOAD PUSH1 0x0 PUSH1 0x40 MLOAD DUP1 DUP4 SUB DUP2 DUP6 DUP9 DUP9 CALL SWAP4 POP POP POP POP ISZERO DUP1 ISZERO PUSH2 0x99E JUMPI RETURNDATASIZE PUSH1 0x0 DUP1 RETURNDATACOPY RETURNDATASIZE PUSH1 0x0 REVERT JUMPDEST POP PUSH2 0xBBF JUMP JUMPDEST PUSH1 0x0 PUSH1 0x3 DUP2 GT ISZERO PUSH2 0x9B8 JUMPI PUSH2 0x9B7 PUSH2 0x110F JUMP JUMPDEST JUMPDEST PUSH1 0x0 DUP1 DUP6 DUP2 MSTORE PUSH1 0x20 ADD SWAP1 DUP2 MSTORE PUSH1 0x20 ADD PUSH1 0x0 KECCAK256 PUSH1 0x3 ADD PUSH1 0x2 ADD PUSH1 0x1 SWAP1 SLOAD SWAP1 PUSH2 0x100 EXP SWAP1 DIV PUSH1 0xFF AND PUSH1 0x3 DUP2 GT ISZERO PUSH2 0x9F0 JUMPI PUSH2 0x9EF PUSH2 0x110F JUMP JUMPDEST JUMPDEST EQ ISZERO PUSH2 0xA8F JUMPI PUSH1 0x0 DUP1 DUP5 DUP2 MSTORE PUSH1 0x20 ADD SWAP1 DUP2 MSTORE PUSH1 0x20 ADD PUSH1 0x0 KECCAK256 PUSH1 0x3 ADD PUSH1 0x0 ADD PUSH1 0x0 SWAP1 SLOAD SWAP1 PUSH2 0x100 EXP SWAP1 DIV PUSH20 0xFFFFFFFFFFFFFFFFFFFFFFFFFFFFFFFFFFFFFFFF AND PUSH20 0xFFFFFFFFFFFFFFFFFFFFFFFFFFFFFFFFFFFFFFFF AND PUSH2 0x8FC PUSH1 0x0 DUP1 DUP7 DUP2 MSTORE PUSH1 0x20 ADD SWAP1 DUP2 MSTORE PUSH1 0x20 ADD PUSH1 0x0 KECCAK256 PUSH1 0x6 ADD SLOAD SWAP1 DUP2 ISZERO MUL SWAP1 PUSH1 0x40 MLOAD PUSH1 0x0 PUSH1 0x40 MLOAD DUP1 DUP4 SUB DUP2 DUP6 DUP9 DUP9 CALL SWAP4 POP POP POP POP ISZERO DUP1 ISZERO PUSH2 0xA89 JUMPI RETURNDATASIZE PUSH1 0x0 DUP1 RETURNDATACOPY RETURNDATASIZE PUSH1 0x0 REVERT JUMPDEST POP PUSH2 0xBBE JUMP JUMPDEST PUSH1 0x0 DUP1 DUP5 DUP2 MSTORE PUSH1 0x20 ADD SWAP1 DUP2 MSTORE PUSH1 0x20 ADD PUSH1 0x0 KECCAK256 PUSH1 0x0 ADD PUSH1 0x0 ADD PUSH1 0x0 SWAP1 SLOAD SWAP1 PUSH2 0x100 EXP SWAP1 DIV PUSH20 0xFFFFFFFFFFFFFFFFFFFFFFFFFFFFFFFFFFFFFFFF AND PUSH20 0xFFFFFFFFFFFFFFFFFFFFFFFFFFFFFFFFFFFFFFFF AND PUSH2 0x8FC PUSH1 0x0 DUP1 DUP7 DUP2 MSTORE PUSH1 0x20 ADD SWAP1 DUP2 MSTORE PUSH1 0x20 ADD PUSH1 0x0 KECCAK256 PUSH1 0x0 ADD PUSH1 0x1 ADD SLOAD SWAP1 DUP2 ISZERO MUL SWAP1 PUSH1 0x40 MLOAD PUSH1 0x0 PUSH1 0x40 MLOAD DUP1 DUP4 SUB DUP2 DUP6 DUP9 DUP9 CALL SWAP4 POP POP POP POP ISZERO DUP1 ISZERO PUSH2 0xB25 JUMPI RETURNDATASIZE PUSH1 0x0 DUP1 RETURNDATACOPY RETURNDATASIZE PUSH1 0x0 REVERT JUMPDEST POP PUSH1 0x0 DUP1 DUP5 DUP2 MSTORE PUSH1 0x20 ADD SWAP1 DUP2 MSTORE PUSH1 0x20 ADD PUSH1 0x0 KECCAK256 PUSH1 0x3 ADD PUSH1 0x0 ADD PUSH1 0x0 SWAP1 SLOAD SWAP1 PUSH2 0x100 EXP SWAP1 DIV PUSH20 0xFFFFFFFFFFFFFFFFFFFFFFFFFFFFFFFFFFFFFFFF AND PUSH20 0xFFFFFFFFFFFFFFFFFFFFFFFFFFFFFFFFFFFFFFFF AND PUSH2 0x8FC PUSH1 0x0 DUP1 DUP7 DUP2 MSTORE PUSH1 0x20 ADD SWAP1 DUP2 MSTORE PUSH1 0x20 ADD PUSH1 0x0 KECCAK256 PUSH1 0x3 ADD PUSH1 0x1 ADD SLOAD SWAP1 DUP2 ISZERO MUL SWAP1 PUSH1 0x40 MLOAD PUSH1 0x0 PUSH1 0x40 MLOAD DUP1 DUP4 SUB DUP2 DUP6 DUP9 DUP9 CALL SWAP4 POP POP POP POP ISZERO DUP1 ISZERO PUSH2 0xBBC JUMPI RETURNDATASIZE PUSH1 0x0 DUP1 RETURNDATACOPY RETURNDATASIZE PUSH1 0x0 REVERT JUMPDEST POP JUMPDEST JUMPDEST PUSH1 0x2 PUSH1 0x0 DUP1 DUP6 DUP2 MSTORE PUSH1 0x20 ADD SWAP1 DUP2 MSTORE PUSH1 0x20 ADD PUSH1 0x0 KECCAK256 PUSH1 0x7 ADD PUSH1 0x0 PUSH2 0x100 EXP DUP2 SLOAD DUP2 PUSH1 0xFF MUL NOT AND SWAP1 DUP4 PUSH1 0x3 DUP2 GT ISZERO PUSH2 0xBF8 JUMPI PUSH2 0xBF7 PUSH2 0x110F JUMP JUMPDEST JUMPDEST MUL OR SWAP1 SSTORE POP JUMPDEST POP POP POP JUMP JUMPDEST PUSH1 0x0 DUP1 PUSH1 0x0 DUP4 DUP2 MSTORE PUSH1 0x20 ADD SWAP1 DUP2 MSTORE PUSH1 0x20 ADD PUSH1 0x0 KECCAK256 PUSH1 0x0 ADD PUSH1 0x2 ADD PUSH1 0x0 SWAP1 SLOAD SWAP1 PUSH2 0x100 EXP SWAP1 DIV PUSH1 0xFF AND PUSH1 0x2 DUP2 GT ISZERO PUSH2 0xC3D JUMPI PUSH2 0xC3C PUSH2 0x110F JUMP JUMPDEST JUMPDEST SWAP1 POP PUSH1 0x0 DUP1 PUSH1 0x0 DUP5 DUP2 MSTORE PUSH1 0x20 ADD SWAP1 DUP2 MSTORE PUSH1 0x20 ADD PUSH1 0x0 KECCAK256 PUSH1 0x3 ADD PUSH1 0x2 ADD PUSH1 0x0 SWAP1 SLOAD SWAP1 PUSH2 0x100 EXP SWAP1 DIV PUSH1 0xFF AND PUSH1 0x2 DUP2 GT ISZERO PUSH2 0xC79 JUMPI PUSH2 0xC78 PUSH2 0x110F JUMP JUMPDEST JUMPDEST SWAP1 POP PUSH1 0x1 PUSH1 0x0 DUP1 DUP6 DUP2 MSTORE PUSH1 0x20 ADD SWAP1 DUP2 MSTORE PUSH1 0x20 ADD PUSH1 0x0 KECCAK256 PUSH1 0x7 ADD PUSH1 0x0 PUSH2 0x100 EXP DUP2 SLOAD DUP2 PUSH1 0xFF MUL NOT AND SWAP1 DUP4 PUSH1 0x3 DUP2 GT ISZERO PUSH2 0xCB4 JUMPI PUSH2 0xCB3 PUSH2 0x110F JUMP JUMPDEST JUMPDEST MUL OR SWAP1 SSTORE POP DUP2 PUSH1 0xFF AND DUP2 PUSH1 0xFF AND EQ ISZERO PUSH2 0xD4E JUMPI PUSH1 0x2 PUSH1 0x0 DUP1 DUP6 DUP2 MSTORE PUSH1 0x20 ADD SWAP1 DUP2 MSTORE PUSH1 0x20 ADD PUSH1 0x0 KECCAK256 PUSH1 0x0 ADD PUSH1 0x2 ADD PUSH1 0x1 PUSH2 0x100 EXP DUP2 SLOAD DUP2 PUSH1 0xFF MUL NOT AND SWAP1 DUP4 PUSH1 0x3 DUP2 GT ISZERO PUSH2 0xD03 JUMPI PUSH2 0xD02 PUSH2 0x110F JUMP JUMPDEST JUMPDEST MUL OR SWAP1 SSTORE POP PUSH1 0x2 PUSH1 0x0 DUP1 DUP6 DUP2 MSTORE PUSH1 0x20 ADD SWAP1 DUP2 MSTORE PUSH1 0x20 ADD PUSH1 0x0 KECCAK256 PUSH1 0x3 ADD PUSH1 0x2 ADD PUSH1 0x1 PUSH2 0x100 EXP DUP2 SLOAD DUP2 PUSH1 0xFF MUL NOT AND SWAP1 DUP4 PUSH1 0x3 DUP2 GT ISZERO PUSH2 0xD44 JUMPI PUSH2 0xD43 PUSH2 0x110F JUMP JUMPDEST JUMPDEST MUL OR SWAP1 SSTORE POP PUSH2 0xEE9 JUMP JUMPDEST DUP2 PUSH1 0xFF AND PUSH1 0x3 PUSH1 0x1 DUP4 PUSH2 0xD61 SWAP2 SWAP1 PUSH2 0x1032 JUMP JUMPDEST PUSH2 0xD6B SWAP2 SWAP1 PUSH2 0x1080 JUMP JUMPDEST PUSH1 0xFF AND EQ ISZERO PUSH2 0xDFB JUMPI PUSH1 0x0 DUP1 PUSH1 0x0 DUP6 DUP2 MSTORE PUSH1 0x20 ADD SWAP1 DUP2 MSTORE PUSH1 0x20 ADD PUSH1 0x0 KECCAK256 PUSH1 0x0 ADD PUSH1 0x2 ADD PUSH1 0x1 PUSH2 0x100 EXP DUP2 SLOAD DUP2 PUSH1 0xFF MUL NOT AND SWAP1 DUP4 PUSH1 0x3 DUP2 GT ISZERO PUSH2 0xDB0 JUMPI PUSH2 0xDAF PUSH2 0x110F JUMP JUMPDEST JUMPDEST MUL OR SWAP1 SSTORE POP PUSH1 0x1 PUSH1 0x0 DUP1 DUP6 DUP2 MSTORE PUSH1 0x20 ADD SWAP1 DUP2 MSTORE PUSH1 0x20 ADD PUSH1 0x0 KECCAK256 PUSH1 0x3 ADD PUSH1 0x2 ADD PUSH1 0x1 PUSH2 0x100 EXP DUP2 SLOAD DUP2 PUSH1 0xFF MUL NOT AND SWAP1 DUP4 PUSH1 0x3 DUP2 GT ISZERO PUSH2 0xDF1 JUMPI PUSH2 0xDF0 PUSH2 0x110F JUMP JUMPDEST JUMPDEST MUL OR SWAP1 SSTORE POP PUSH2 0xEE8 JUMP JUMPDEST DUP1 PUSH1 0xFF AND PUSH1 0x3 PUSH1 0x1 DUP4 PUSH2 0xE0E SWAP2 SWAP1 PUSH2 0x1032 JUMP JUMPDEST PUSH2 0xE18 SWAP2 SWAP1 PUSH2 0x1080 JUMP JUMPDEST PUSH1 0xFF AND EQ ISZERO PUSH2 0xEA8 JUMPI PUSH1 0x1 PUSH1 0x0 DUP1 DUP6 DUP2 MSTORE PUSH1 0x20 ADD SWAP1 DUP2 MSTORE PUSH1 0x20 ADD PUSH1 0x0 KECCAK256 PUSH1 0x0 ADD PUSH1 0x2 ADD PUSH1 0x1 PUSH2 0x100 EXP DUP2 SLOAD DUP2 PUSH1 0xFF MUL NOT AND SWAP1 DUP4 PUSH1 0x3 DUP2 GT ISZERO PUSH2 0xE5D JUMPI PUSH2 0xE5C PUSH2 0x110F JUMP JUMPDEST JUMPDEST MUL OR SWAP1 SSTORE POP PUSH1 0x0 DUP1 PUSH1 0x0 DUP6 DUP2 MSTORE PUSH1 0x20 ADD SWAP1 DUP2 MSTORE PUSH1 0x20 ADD PUSH1 0x0 KECCAK256 PUSH1 0x3 ADD PUSH1 0x2 ADD PUSH1 0x1 PUSH2 0x100 EXP DUP2 SLOAD DUP2 PUSH1 0xFF MUL NOT AND SWAP1 DUP4 PUSH1 0x3 DUP2 GT ISZERO PUSH2 0xE9E JUMPI PUSH2 0xE9D PUSH2 0x110F JUMP JUMPDEST JUMPDEST MUL OR SWAP1 SSTORE POP PUSH2 0xEE7 JUMP JUMPDEST PUSH1 0x3 PUSH1 0x0 DUP1 DUP6 DUP2 MSTORE PUSH1 0x20 ADD SWAP1 DUP2 MSTORE PUSH1 0x20 ADD PUSH1 0x0 KECCAK256 PUSH1 0x7 ADD PUSH1 0x0 PUSH2 0x100 EXP DUP2 SLOAD DUP2 PUSH1 0xFF MUL NOT AND SWAP1 DUP4 PUSH1 0x3 DUP2 GT ISZERO PUSH2 0xEE1 JUMPI PUSH2 0xEE0 PUSH2 0x110F JUMP JUMPDEST JUMPDEST MUL OR SWAP1 SSTORE POP JUMPDEST JUMPDEST JUMPDEST POP POP POP JUMP JUMPDEST PUSH1 0x0 DUP2 CALLDATALOAD SWAP1 POP PUSH2 0xEFD DUP2 PUSH2 0x1143 JUMP JUMPDEST SWAP3 SWAP2 POP POP JUMP JUMPDEST PUSH1 0x0 DUP2 CALLDATALOAD SWAP1 POP PUSH2 0xF12 DUP2 PUSH2 0x1153 JUMP JUMPDEST SWAP3 SWAP2 POP POP JUMP JUMPDEST PUSH1 0x0 PUSH1 0x20 DUP3 DUP5 SUB SLT ISZERO PUSH2 0xF2E JUMPI PUSH2 0xF2D PUSH2 0x113E JUMP JUMPDEST JUMPDEST PUSH1 0x0 PUSH2 0xF3C DUP5 DUP3 DUP6 ADD PUSH2 0xEEE JUMP JUMPDEST SWAP2 POP POP SWAP3 SWAP2 POP POP JUMP JUMPDEST PUSH1 0x0 PUSH1 0x20 DUP3 DUP5 SUB SLT ISZERO PUSH2 0xF5B JUMPI PUSH2 0xF5A PUSH2 0x113E JUMP JUMPDEST JUMPDEST PUSH1 0x0 PUSH2 0xF69 DUP5 DUP3 DUP6 ADD PUSH2 0xF03 JUMP JUMPDEST SWAP2 POP POP SWAP3 SWAP2 POP POP JUMP JUMPDEST PUSH1 0x0 DUP1 PUSH1 0x40 DUP4 DUP6 SUB SLT ISZERO PUSH2 0xF89 JUMPI PUSH2 0xF88 PUSH2 0x113E JUMP JUMPDEST JUMPDEST PUSH1 0x0 PUSH2 0xF97 DUP6 DUP3 DUP7 ADD PUSH2 0xF03 JUMP JUMPDEST SWAP3 POP POP PUSH1 0x20 PUSH2 0xFA8 DUP6 DUP3 DUP7 ADD PUSH2 0xEEE JUMP JUMPDEST SWAP2 POP POP SWAP3 POP SWAP3 SWAP1 POP JUMP JUMPDEST PUSH2 0xFBB DUP2 PUSH2 0x1069 JUMP JUMPDEST DUP3 MSTORE POP POP JUMP JUMPDEST PUSH1 0x0 PUSH1 0x20 DUP3 ADD SWAP1 POP PUSH2 0xFD6 PUSH1 0x0 DUP4 ADD DUP5 PUSH2 0xFB2 JUMP JUMPDEST SWAP3 SWAP2 POP POP JUMP JUMPDEST PUSH1 0x0 PUSH2 0xFE7 DUP3 PUSH2 0x1069 JUMP JUMPDEST SWAP2 POP PUSH2 0xFF2 DUP4 PUSH2 0x1069 JUMP JUMPDEST SWAP3 POP DUP3 PUSH32 0xFFFFFFFFFFFFFFFFFFFFFFFFFFFFFFFFFFFFFFFFFFFFFFFFFFFFFFFFFFFFFFFF SUB DUP3 GT ISZERO PUSH2 0x1027 JUMPI PUSH2 0x1026 PUSH2 0x10B1 JUMP JUMPDEST JUMPDEST DUP3 DUP3 ADD SWAP1 POP SWAP3 SWAP2 POP POP JUMP JUMPDEST PUSH1 0x0 PUSH2 0x103D DUP3 PUSH2 0x1073 JUMP JUMPDEST SWAP2 POP PUSH2 0x1048 DUP4 PUSH2 0x1073 JUMP JUMPDEST SWAP3 POP DUP3 PUSH1 0xFF SUB DUP3 GT ISZERO PUSH2 0x105E JUMPI PUSH2 0x105D PUSH2 0x10B1 JUMP JUMPDEST JUMPDEST DUP3 DUP3 ADD SWAP1 POP SWAP3 SWAP2 POP POP JUMP JUMPDEST PUSH1 0x0 DUP2 SWAP1 POP SWAP2 SWAP1 POP JUMP JUMPDEST PUSH1 0x0 PUSH1 0xFF DUP3 AND SWAP1 POP SWAP2 SWAP1 POP JUMP JUMPDEST PUSH1 0x0 PUSH2 0x108B DUP3 PUSH2 0x1073 JUMP JUMPDEST SWAP2 POP PUSH2 0x1096 DUP4 PUSH2 0x1073 JUMP JUMPDEST SWAP3 POP DUP3 PUSH2 0x10A6 JUMPI PUSH2 0x10A5 PUSH2 0x10E0 JUMP JUMPDEST JUMPDEST DUP3 DUP3 MOD SWAP1 POP SWAP3 SWAP2 POP POP JUMP JUMPDEST PUSH32 0x4E487B7100000000000000000000000000000000000000000000000000000000 PUSH1 0x0 MSTORE PUSH1 0x11 PUSH1 0x4 MSTORE PUSH1 0x24 PUSH1 0x0 REVERT JUMPDEST PUSH32 0x4E487B7100000000000000000000000000000000000000000000000000000000 PUSH1 0x0 MSTORE PUSH1 0x12 PUSH1 0x4 MSTORE PUSH1 0x24 PUSH1 0x0 REVERT JUMPDEST PUSH32 0x4E487B7100000000000000000000000000000000000000000000000000000000 PUSH1 0x0 MSTORE PUSH1 0x21 PUSH1 0x4 MSTORE PUSH1 0x24 PUSH1 0x0 REVERT JUMPDEST PUSH1 0x0 DUP1 REVERT JUMPDEST PUSH1 0x3 DUP2 LT PUSH2 0x1150 JUMPI PUSH1 0x0 DUP1 REVERT JUMPDEST POP JUMP JUMPDEST PUSH2 0x115C DUP2 PUSH2 0x1069 JUMP JUMPDEST DUP2 EQ PUSH2 0x1167 JUMPI PUSH1 0x0 DUP1 REVERT JUMPDEST POP JUMP INVALID LOG2 PUSH5 0x6970667358 0x22 SLT KECCAK256 SWAP1 0x2C 0x28 0xC2 BALANCE SSTORE SWAP14 DUP8 0xB8 LOG1 0xAE SSTORE PUSH20 0xE3D53F576AFA6C35E9F98BDC8811231359DDC364 PUSH20 0x6F6C634300080700330000000000000000000000 "
				},
				"gasEstimates": {
					"creation": {
						"codeDepositCost": "902400",
						"executionCost": "5917",
						"totalCost": "908317"
					},
					"external": {
						"createRoom(uint8)": "infinite",
						"joinRoom(uint256,uint8)": "infinite",
						"payout(uint256)": "infinite"
					},
					"internal": {
						"compareHands(uint256)": "infinite"
					}
				},
				"methodIdentifiers": {
					"createRoom(uint8)": "0f36f3b5",
					"joinRoom(uint256,uint8)": "79b15776",
					"payout(uint256)": "e1152343"
				}
			},
			"storageLayout": {
				"storage": [
					{
						"astId": 47,
						"contract": "contracts/RPS.sol:RPS",
						"label": "rooms",
						"offset": 0,
						"slot": "0",
						"type": "t_mapping(t_uint256,t_struct(Game)42_storage)"
					},
					{
						"astId": 50,
						"contract": "contracts/RPS.sol:RPS",
						"label": "roomLen",
						"offset": 0,
						"slot": "1",
						"type": "t_uint256"
					}
				],
				"types": {
					"t_address_payable": {
						"encoding": "inplace",
						"label": "address payable",
						"numberOfBytes": "20"
					},
					"t_enum(GameStatus)19": {
						"encoding": "inplace",
						"label": "enum RPS.GameStatus",
						"numberOfBytes": "1"
					},
					"t_enum(Hand)9": {
						"encoding": "inplace",
						"label": "enum RPS.Hand",
						"numberOfBytes": "1"
					},
					"t_enum(PlayerStatus)14": {
						"encoding": "inplace",
						"label": "enum RPS.PlayerStatus",
						"numberOfBytes": "1"
					},
					"t_mapping(t_uint256,t_struct(Game)42_storage)": {
						"encoding": "mapping",
						"key": "t_uint256",
						"label": "mapping(uint256 => struct RPS.Game)",
						"numberOfBytes": "32",
						"value": "t_struct(Game)42_storage"
					},
					"t_struct(Game)42_storage": {
						"encoding": "inplace",
						"label": "struct RPS.Game",
						"members": [
							{
								"astId": 33,
								"contract": "contracts/RPS.sol:RPS",
								"label": "originator",
								"offset": 0,
								"slot": "0",
								"type": "t_struct(Player)30_storage"
							},
							{
								"astId": 36,
								"contract": "contracts/RPS.sol:RPS",
								"label": "taker",
								"offset": 0,
								"slot": "3",
								"type": "t_struct(Player)30_storage"
							},
							{
								"astId": 38,
								"contract": "contracts/RPS.sol:RPS",
								"label": "betAmount",
								"offset": 0,
								"slot": "6",
								"type": "t_uint256"
							},
							{
								"astId": 41,
								"contract": "contracts/RPS.sol:RPS",
								"label": "gameStatus",
								"offset": 0,
								"slot": "7",
								"type": "t_enum(GameStatus)19"
							}
						],
						"numberOfBytes": "256"
					},
					"t_struct(Player)30_storage": {
						"encoding": "inplace",
						"label": "struct RPS.Player",
						"members": [
							{
								"astId": 21,
								"contract": "contracts/RPS.sol:RPS",
								"label": "addr",
								"offset": 0,
								"slot": "0",
								"type": "t_address_payable"
							},
							{
								"astId": 23,
								"contract": "contracts/RPS.sol:RPS",
								"label": "playerBetAmount",
								"offset": 0,
								"slot": "1",
								"type": "t_uint256"
							},
							{
								"astId": 26,
								"contract": "contracts/RPS.sol:RPS",
								"label": "hand",
								"offset": 0,
								"slot": "2",
								"type": "t_enum(Hand)9"
							},
							{
								"astId": 29,
								"contract": "contracts/RPS.sol:RPS",
								"label": "playerStatus",
								"offset": 1,
								"slot": "2",
								"type": "t_enum(PlayerStatus)14"
							}
						],
						"numberOfBytes": "96"
					},
					"t_uint256": {
						"encoding": "inplace",
						"label": "uint256",
						"numberOfBytes": "32"
					}
				}
			},
			"userdoc": {
				"kind": "user",
				"methods": {},
				"version": 1
			}
		}
	}
}